:1000000000800020B1740000C72D0000C12D000049
:1000100000000000000000000000000000000000E0
:10002000000000000000000000000000F574000067
:100030000000000000000000F5740000512C0000DA
:10004000F5740000F5740000A97400000579000043
:1000500061790000F57400000116000071160000BF
:10006000F5740000F5740000F5740000F5740000EC
:10007000CD2D0000F5740000F5740000C5310000BE
:10008000E1160000F5740000F5740000F57400003E
:10009000F5740000F5740000F5740000F5740000BC
:1000A000F57400000000000000000000F57400007E
:1000B000F5740000F5740000F5740000F57400009C
:1000C00010B5064C2378002B07D1054B002B02D02E
:1000D000044800E000BF0123237010BD440200204B
:1000E00000000000BCBF0000044B10B5002B03D083
:1000F0000349044800E000BF10BDC04600000000F6
:1001000048020020BCBF0000402292029A1A924688
:100110007047C046174B002B00D1134B9D46FFF78D
:10012000F3FF00218B460F461348144A121A0AF0B7
:10013000D0FA0E4B002B00D098470D4B002B00D06F
:1001400098470020002104000D000D48002802D02F
:100150000C4800E000BF0AF06DFA2000290007F00B
:10016000EDFC0AF051FAC046000008000000000053
:10017000000000000080002044020020381500200C
:10018000000000000000000010B505F0F5F9C020E7
:10019000800502F04DFC10BD10B5024B186807F049
:1001A00015FA10BD6002002010B5024B186807F068
:1001B00003FB10BD6002002070B5FC20400008F079
:1001C000C1F8040007F0F8FB134B1C60082008F08E
:1001D000B9F8040007F0A8FC104D2C60142008F0BA
:1001E000B1F804002A68002107F0E2F90C4B1C600A
:1001F00070BDFC214900200007F030FD07F032FD02
:100200000821200007F02AFD07F02CFD1421200012
:1002100007F024FD07F026FDB40200206402002050
:100220006002002010B504220121002005F0AAF888
:10023000002005F08DF802220121012005F0A2F82E
:10024000012005F085F8012301220121002005F09D
:100250001FFB8022002312020021012005F018FB61
:10026000002308220121022005F012FB01220821AF
:10027000032002F0F7FD0821032002F055FE802440
:10028000240101222100012002F0ECFD21000120C7
:1002900002F04AFE10BD000070B5002304220221C6
:1002A0000A2000F0DDFE0123082202210A2000F0CE
:1002B000A5FE0123102202210A2000F0B7FE012131
:1002C0000A2000F031FCE124240221000A2000F081
:1002D00035FC0A2004F0A6F85E4D28608022002339
:1002E000520101210B2000F0BBFE8022032392016A
:1002F00002210B2000F082FE80220323D201022182
:100300000B2000F093FE01210B2000F00DFC2100DA
:100310000B2000F013FC0B2004F084F84E4B186007
:100320004E4B186807F09EF9286805F033FC05F07D
:10033000E3FC00281CD04A4801F0B6FC494801F013
:10034000BDFC494801F0C4FC0121C82003F098FA23
:10035000464B18600024092C0ED86300444AD2187A
:10036000424B1868210003F0D7FD0134E4B2F2E7F4
:10037000404801F099FCE1E70024092C0AD8630009
:100380003D4AD218394B1868210003F099FD013419
:10039000E4B2F2E73949C12292008B58384818403C
:1003A00080231B0403438B508B581B021B0A8020A5
:1003B000000603438B50012001F0D2FA002820DB15
:1003C00083082E4CC0339B001A5903210840C000FB
:1003D000FC3181408A43C02181400A431A510220E6
:1003E00001F0BEFA002822DB8308244CC0339B00B6
:1003F0001A5903210840C000FC3181408A431A5138
:1004000070BD0F230340083B9B0806339B001D4A29
:1004100094466344596803221040C000FC32824075
:1004200091430A00C02181400A435A60D7E70F2355
:100430000340083B9B0806339B00124A94466344E2
:10044000596803221040C000FC3282409143596039
:10045000D6E7C046940200209802002060020020E7
:100460000A01A8C00101A8C00000FFFF90020020FF
:100470007C0200200B01A8C06802002000E100E01F
:10048000FFFF00FF00ED00E070B5182007F05AFFF5
:100490000400A34B1E68336883600023037002339B
:1004A00043600C2007F04EFF00239A0000211150FA
:1004B000012B01D00133F8E700238360E06066611F
:1004C0000221300004F038F82061002504E0AB0080
:1004D000E268D0500135EDB2012D06D8ABB2022250
:1004E0000221300004F029F9F1E78E4B1C6018203E
:1004F00007F028FF04008A4B1E68336883600023DE
:100500000370033343600C2007F01CFF00239A00A4
:1005100000211150012B01D00133F8E70023836043
:10052000E06066610321300004F006F820610025D8
:1005300004E0AB00E268D0500135EDB2012D06D8E1
:10054000ABB202220321300004F0F7F8F1E7764B5A
:100550001C60182007F0F6FE0400714B1E6833681B
:10056000836000230370043343600C2007F0EAFE2D
:1005700000239A0000211150012B01D00133F8E72C
:1005800000238360E06066610421300003F0D4FF43
:100590002061002504E0AB00E268D0500135EDB2E7
:1005A000012D06D8ABB202220421300004F0C5F8B8
:1005B000F1E75E4B1C60182007F0C4FE0400584BA6
:1005C0001E683368836000230370053343600C208A
:1005D00007F0B8FE00239A0000211150012B01D032
:1005E0000133F8E700238360E06066610521300095
:1005F00003F0A2FF2061002504E0AB00E268D050C8
:100600000135EDB2012D06D8ABB202220521300032
:1006100004F093F8F1E7464B1C60182007F092FEB7
:1006200004003F4B1E683368836000230370063369
:1006300043600C2007F086FE002303609A008218B6
:1006400000215160012B01D00133F7E7E0606661C2
:100650000621300003F070FF20610025002D0BD132
:10066000ABB202220621300004F067F8AB00E2686A
:10067000D0500135EDB2F1E72E4B1C60182007F089
:1006800061FE0400264B1E683368836000230370FC
:1006900007334360542007F055FE05005422002123
:1006A0000AF017F8E56066610721300003F044FFA7
:1006B0002061002504E0AB00E268D0500135EDB2C6
:1006C000132D06D8ABB202220721300004F035F812
:1006D000F1E7194B1C6070BD1821200007F0BEFA2D
:1006E00007F0C0FA1821200007F0B8FA07F0BAFAAC
:1006F0001821200007F0B2FA07F0B4FA1821200000
:1007000007F0ACFA07F0AEFA1821200007F0A6FABD
:1007100007F0A8FA1821200007F0A0FA07F0A2FAC3
:1007200094020020A0020020A4020020A8020020C1
:10073000AC020020B00200209C02002070B582B004
:100740000124019400940A2200232A4802F066FC46
:1007500005F0D2FA0225019500901E2200232648BA
:1007600002F05CFC019500941E220023234802F055
:1007700055FC234E01950094224A0023300002F0DC
:100780004DFC01950094012200231F4802F046FC15
:1007900001950094052200231C4802F03FFC1C4DEB
:1007A0000194002300930A220023280002F036FC63
:1007B00005F0A2FA019401235840C0B200906422CF
:1007C0000023144802F02AFC019400940122002323
:1007D000114802F023FC300002F068FC02F018FD22
:1007E000280002F063FC02F013FD02F02FFC02B0BF
:1007F00070BDC046215900001D08000039090000E5
:10080000E9080000B80B0000A901000099010000F0
:10081000150900002D0900008901000010B5294BC1
:100820001B689B79002B11D1274A13680133136091
:10083000062B42D89B00254AD3589F46244B1B6861
:10084000197958690223002204F0F0F810BD214BF9
:100850001B68197958690223002204F0E7F8F5E7CC
:100860001D4B1B68197958690223002204F0DEF839
:10087000ECE71A4B1B68197958690223002204F02F
:10088000D5F8E3E7164B1B68197958690123002254
:1008900004F0CCF8DAE7124B1B6819795869022387
:1008A000002204F0B7F8D1E70E4B1B68197958699C
:1008B0001423002204F0BAF8C8E7034B0122524285
:1008C0001A60C3E7940200200400002060B8000012
:1008D000A0020020A4020020A8020020AC020020F8
:1008E000B00200209C02002010B505F005FA002897
:1008F00000D110BD05F006FA0028FAD1044802F034
:10090000D5FB02F08AFC002004F008FDF1E7C046A8
:100910001509000010B5002004F01AFD024802F08D
:10092000C5FB02F07AFC10BD1509000010B50120CE
:1009300004F058FD10BD000010B50B4B186883790A
:10094000002B09D1094A136801331360002B04D02E
:10095000064B012252421A6010BD013300220121D0
:1009600004F064F8F8E7C046980200200800002070
:1009700010B5002004F0D2FC054C200002F096FBDC
:1009800002F046FC200002F091FB02F049FC10BD91
:100990001509000010B50400830704D4E30716D43A
:1009A000630724D410BD002005F02AF9124802F094
:1009B0007DFB02F032FC114802F078FB02F02DFCC6
:1009C000012004F0ABFC002004F0C2FCE6E70220AA
:1009D00005F016F905F096F90028E1D0084802F074
:1009E00065FB02F01AFC002004F098FCD8E7042014
:1009F00005F006F9D6E7C0461D0800002D090000E5
:100A00001509000070B50400830702D463072AD4D7
:100A100070BD012005F0F4F8002004F099FC0120DD
:100A200004F096FC124802F041FB02F0F1FB05F0E5
:100A300063F9002808D00F4802F038FB02F0F0FB01
:100A40000D4801F031F9E1E70C4D280002F02EFBD2
:100A500002F0DEFB280002F029FB02F0E1FB08486F
:100A600001F022F9D2E7052005F0CAF8D0E7C04628
:100A7000E90800001D0800000A01A8C02D090000B7
:100A80000B01A8C010B503680A2B00D010BDFFF7FA
:100A90006FFF034802F00AFB02F0BAFBF6E7C0461C
:100AA000E908000010B50A3834246043104C2418BB
:100AB000E38C208D00041843638DA18D0904194334
:100AC000E28D02F0FFF9E069216A626A02F0FAF948
:100AD000237C012B00D010BD638AA08A0004184338
:100AE000E38A218B09041943628B02F0EBF9F2E7E8
:100AF0000C00002010B503000A3B34205843034B80
:100B0000C058012106F032FA10BDC0460C0000208A
:100B10000B2801D0034870470A3834234343014867
:100B2000C018F8E70C0000200A3834234343024879
:100B3000C01801747047C0460C0000200A38E12339
:100B40001B02994240D01BD89623DB01994233D037
:100B500096231B02994207D1342343432648C018E9
:100B600096231B0283600AE096239B0199423BD1A6
:100B7000342343432048C01896239B018360704769
:100B8000E123DB02994227D0E1231B03994207D1DD
:100B9000342343431848C018E1231B038360EEE766
:100BA000E1239B0299421FD1342343431248C018CA
:100BB000E1239B028360E2E7342343430E48C018DD
:100BC0009623DB018360DAE7342343430A48C018E5
:100BD000E1231B028360D2E7342343430648C01855
:100BE000E123DB028360CAE7342343430248C01891
:100BF000E1235B028360C2E70C00002010B50A38D5
:100C000082000C4BD258342343430B48C018303079
:100C10000378002B0DD0094BD35A802080008342EB
:100C200007D2D018064CA446604401700133034932
:100C3000535210BDBC0200200C00002034060000FE
:100C40003404000070B505000C00090AFFF7D6FF58
:100C5000E1B22800FFF7D2FF70BD0000F8B5050033
:100C60000F00160002000A3A34235A430D4B9B181A
:100C700030331B78002B0FD0002E0FD000290FD05F
:100C8000002405E0395D2800FFF7B8FF0134A4B265
:100C9000B442F7D3002000E00920F8BD0120FCE7B2
:100CA0000120FAE70C00002010B50A388200174B2B
:100CB000D358342242431648801830300278002A34
:100CC00020D09A6A002A0DD0DA690132DA619A6A74
:100CD00080208000135A834216D2D154013313521C
:100CE000002010BD0B4A9A5C002A06D01A002C3254
:100CF0009A62094800241454E6E78C2292009A185C
:100D00009A62E1E70920ECE70320EAE7BC02002051
:100D10000C0000202E02000002020000034B012202
:100D2000C254023B0022C2527047C0460202000079
:100D300010B503000A3B9B00054A9858002903D0D0
:100D40000800FFF7EBFF10BD2C30FFF7E7FFFAE7D5
:100D5000BC0200200A388200074BD2583423434398
:100D60000648C01830300378002B04D00023044913
:100D70005352043153527047BC0200200C00002033
:100D80003406000070B50A388200324BD35800296F
:100D90002FD1314A9954314B34224243D458216BDC
:100DA0002F4D29402163D458256B80218900294388
:100DB00021639B181B7C012B00D070BD3422424361
:100DC000264B9B185B7C002B08D024488018818A16
:100DD00089B2807CC0B202F0A7F8EEE73423434327
:100DE0001E48C018818A89B2807CC0B202F0AAF87D
:100DF000E3E7194A01219954184B34224243D4584D
:100E0000216B184D29402163D458256B802149005E
:100E1000294321639B181B7C012BCED134224243F2
:100E20000E4B9B185B7C002B08D00C488018818AE5
:100E300089B2807CC0B202F085F8BEE73423434318
:100E40000648C018818A89B2807CC0B202F06CF872
:100E5000B3E7C046BC0200204D0600000C00002095
:100E6000FFFEFFFFFFFDFFFF0A388200074BD2584D
:100E7000342343430648C01830300378D8B2002BDF
:100E800000D17047034BD05CFBE7C046BC0200209A
:100E90000C0000204D06000010B50A388200154BEA
:100EA000D3581A6A01321A6213495A5A013A5A52ED
:100EB000C722D2009A5AFF2149008A4215D9C72277
:100EC000D20000219952C722D2009A5A013A9A18A8
:100ED0000A498C46624411781976117834235843B4
:100EE000074BC05806F05EF810BD0132C721C9009B
:100EF0005A52E8E7BC020020340600003404000027
:100F00000C00002010B503000A3B34205843024B6C
:100F1000C05806F043F810BD0C00002070B50A3828
:100F2000124D3424444360590122102106F02CF85C
:100F300060590122202106F027F880216059012202
:100F4000C90006F021F8802160590122890006F0CD
:100F50001BF8802160590122490006F015F86059FC
:100F60000122802106F010F870BDC0460C00002060
:100F700030B50A38342242431D4B9B18DB7BDAB272
:100F80005BB2002B1CDB9B081A4DC0339B005C59E5
:100F900003210A40D200FC3191408C4321004024BF
:100FA000944022000A435A51342343431048C01846
:100FB000C27B1F231A401E3B93400E4A136030BD74
:100FC0000F231340083B9B0806339B000A498C46BD
:100FD00063445C6803210A40D200FC3191408C4399
:100FE00021004024944022000A435A60DCE7C046B6
:100FF0000C00002000E100E000ED00E010B50A3830
:101000003424444308480019040021342370C28367
:1010100001770200223201231370023A1370233049
:101020000233037010BDC0460C00002010B50A3812
:10103000342444430948001904002B3423700285EA
:10104000030026331970063300221A70023B013266
:101050001A702D300323037010BDC0460C00002011
:1010600010B50A3834244443064800190024C475D6
:101070008282817401220276827502324276437442
:1010800010BDC0460C0000200B2802D0024B18688F
:101090007047014B5868FBE7BC020020014B186801
:1010A0007047C046B802002010B50A3884000B4BC8
:1010B000E458342343430A48C01830300378002BE7
:1010C0000AD04B1E9BB2062B06D8C7239B009C461A
:1010D0006144490061184A8010BDC046BC0200202E
:1010E0000C00002070B50C000A3880000D4BC5586C
:1010F000022000F0C9FB072C01D9022070BD0A4B69
:10110000EC54C7239B009C46644464002C196388FC
:101110000133064AAB520021022000F0CDFB002033
:10112000ECE7C046BC0200204C0600004A06000066
:1011300070B505000C00E120000307F04FFA82B201
:1011400045230021022000F015FB0021022000F0C1
:10115000BDFB01220221022000F08CFB022000F0E6
:101160004BFB00212800FFF7BDFF044B1C60022051
:1011700000F0B6FB024B186070BDC046B8020020FC
:10118000B8030020F8B5CE46474680B505000400F8
:101190000A3CA2005C4BD758342262435B4B9B183D
:1011A00030331B78002B36D0584B984634235C43A1
:1011B00043461E197068012105F01CFC4346E058A7
:1011C00005F06CFE20212800FFF79CFE102128006E
:1011D000FFF798FE2800FFF765FC00212800FFF7C5
:1011E000D1FD4346E058042105F0E0FEB3684849CC
:1011F0000B60337B8B80737BCB80B37B0B810023B5
:101200004B81C0239B008B814346E05805F058FE7C
:101210000023002614E001213E4809F0DDF9A30077
:10122000394AD0502800FFF72FFF070034226243CD
:10123000364B9B18303301221A70B5E70133DBB20D
:10124000012B12D834205843304A12183032127809
:10125000002AF3D0342058432C4A12189268B24224
:10126000ECD92A4909188E68E8E7002401E0013426
:10127000E4B2012C2ED834226243244B9B18303325
:101280001B78002BF3D01300204A90469844434625
:101290009968300007F0A2F9A3001B4A9B589946B1
:1012A000400080B21C4B4A46D052434699683000F9
:1012B00007F094F9800080B2184B4A46D05243465A
:1012C0009968300007F08AF980B2C923DB004A46EA
:1012D000D052CCE7022000F085FA31002800FFF759
:1012E00027FF39002C312800FFF722FD8C239B00BB
:1012F000F9182800FFF71CFD2800FFF72BFDC0BCE4
:10130000B946B046F8BDC046BC0200200C00002023
:10131000CC0300205C0600003C0600003E060000F6
:1013200010B50A388000094BC35807290AD8084A63
:101330009954C7229200944661444900591849883B
:10134000044A9952022000F0ABFA10BDBC02002002
:101350004C0600004A06000070B5040002000A3A7C
:1013600034235A430B4B9B1830331B78002B02D18C
:101370000925280070BDFFF777FD051E01D0042563
:10138000F7E701212000FFF7FDFC07212000FFF710
:10139000C7FFEEE70C00002070B5002401E0013427
:1013A000E4B2012C00D99CE02500342262434D4B6D
:1013B0009B1830331B78002BF1D0A3004A4A9B586E
:1013C0001A68002A0FD0494A9A5892070BD5474904
:1013D0005A58022082435A50A300434A9B581B6824
:1013E00020000A309847AB003F4A9B583F4A9A5822
:1013F00052071BD53D495A58042082435A50AB002E
:10140000394A9B58996ACA22D200995000229A629E
:101410005A68002A03D05B6828000A309847AB005E
:10142000314A9A58CA23DB000021D150AB002E4A22
:101430009B589A68002A0FD02C4A9A5812070BD54D
:101440002A495A58082082435A50AB00264A9B58D2
:101450009B6828000A309847AB00234A9B58DA68FB
:10146000002A0FD0214A9A58D2060BD51F495A5844
:10147000102082435A50AB001B4A9B58DB6828005F
:101480000A309847AB00184A9B581A69002A0FD0B7
:10149000164A9A5892060BD514495A58202082436E
:1014A0005A50AB00104A9B581B6928000A309847D5
:1014B000AB000D4A9B585A69002A00D16FE70B4ACE
:1014C0009A58520600D46AE708495A584020824385
:1014D0005A50AA00044BD3585B6928000A30984739
:1014E0005DE770BD0C000020BC0200205406000027
:1014F00010B5040002000A3A91002E4BC95834235B
:101500005A432D4B9B1830331B78002B24D02B4B88
:10151000CB5A002B20D12A4BCB5C072B1CD89B002D
:10152000284AD3589F46264B0022CA54264BCB5AF2
:10153000002B11D0FFF7B0FC0EE0214B0022CA5463
:10154000224A0223885803438B5000212000FFF7D2
:1015500019FC2000FFF7FEFB10BD194B0022CA54F6
:101560001A4A0423885803438B50F5E7144B002292
:10157000CA54164A0823885803438B50ECE7104B93
:101580000022CA54114A1023885803438B50E3E7C2
:101590000B4B0022CA540D4A2023885803438B501A
:1015A000DAE7074B0022CA54084A4023885803430D
:1015B0008B50D1E7BC0200200C0000204A0600003E
:1015C0004C0600007CB80000340600005406000001
:1015D00010B5040003000A3B9B00074A9A58074BCA
:1015E000D35C002B00D010BDFFF75EFB0221200072
:1015F000FFF796FEF7E7C046BC0200204D0600004C
:1016000010B5164B1C68164BDB6BDB060DD4144B68
:10161000DB6B9B0603D5134BE35C012B0CD0104A0C
:10162000516C114B0B43536410BD0D4B1968C9B27B
:101630000A20FFF7CDFFEAE70C4BE35A002B03D05B
:101640000A20FFF729FCEAE7054A536C20210B43E7
:1016500053641F390A20FFF763FEE0E7BC02002055
:10166000000003404D060000CF07000034060000D4
:1016700010B5164B5C68164BDB6BDB060DD4144BB8
:10168000DB6B9B0603D5134BE35C012B0CD0104A9C
:10169000516C114B0B43536410BD0D4B1968C9B20B
:1016A0000B20FFF795FFEAE70C4BE35A002B03D022
:1016B0000B20FFF7F1FBEAE7054A536C20210B43AF
:1016C00053641F390B20FFF72BFEE0E7BC0200201C
:1016D000008003404D060000CF07000034060000E4
:1016E00070B5002400260DE020000A30FFF700FF4F
:1016F000AD001A4BEA581A4BD358002B00D00126E4
:101700000134E4B2012C1AD8250034226243154B6F
:101710009B1830331B78002BF2D0A3000F4A9B5844
:10172000114A9A5C002AE3D0104A9A5A92B2002ACF
:10173000DAD00E495A5A013A92B25A52D8E7002EDC
:1017400009D10B4B1A68002111601A68536D0231E0
:101750008B43536570BDFFF71FFEF2E7BC0200200C
:10176000540600000C0000204C0600004A06000051
:10177000B8030020F0B5C64600B588B0050088461D
:1017800017001C000301164EF6180121F06805F041
:1017900031F9706805F0B5FA7068042105F034FB82
:1017A000002C00D1013443460093013C6B469C80E1
:1017B000029700236A46D3819381138253829382D6
:1017C000D3821383538393832D0105484519686899
:1017D000694605F0C0FA08B080BCB846F0BDC04606
:1017E0007400002010B503010248C018406805F0DD
:1017F00088FA10BD7400002010B503011A48C01803
:10180000037A1F221A4001239340184A13600823C9
:10181000C356002B10DB9A08144CC03292001159A9
:1018200003200340DB00FC30984081438020984037
:1018300003000B43135110BD0F221A40083A9208BF
:10184000063292000A498C466244506803210B40DC
:10185000DB00FC3199408843010080209840030060
:101860000B435360E7E7C0467400002000E100E04E
:1018700000ED00E010B503010248C018406805F013
:10188000BAFA10BD7400002010B503010348C01857
:101890004068002105F087FA10BDC04674000020A2
:1018A00010B503010348C0184068012105F07BFA18
:1018B00010BDC0467400002010B503010248C018D6
:1018C000406805F07AFA10BD7400002010B50301DD
:1018D0000248C018406805F07DFA10BD7400002071
:1018E00003010248C01840687047C04674000020D9
:1018F00070B503011748C0180823C356002B11DB2D
:101900009A08154DC0329200545903200340DB0061
:10191000FC3006009E40B4438901084098402043B3
:10192000505170BD0F221A40083A920806329200B8
:101930000A4884466244556803242340DB00FF20A4
:1019400004009C40A543890108409840284350600A
:10195000E7E7C0467400002000E100E000ED00E091
:1019600003010248C018007A40B27047740000209A
:1019700030B50023012A05D95C000D5B0553013306
:10198000023AF7E7002A02D05B00CA5CC25430BDBD
:1019900010B588B0040004F041FD1A4B1C801A4BAE
:1019A0000A221A80F732FF325A8080200121C001BA
:1019B00005F020F8154C0021200005F025FA200044
:1019C00005F09FF9684605F0E0F950236A469380D8
:1019D0000F4B02936946200005F0BDF980214900B4
:1019E000200005F0EFF90121200005F0DCF90023CB
:1019F000084A1370084A1370084A1370084A137093
:101A000008B010BD1C030020E402002000000740C5
:101A1000400D03000C030020F4020020000300200E
:101A2000EF02002010B50400C82003F03BFD044B7A
:101A30001860C82003F040FD2000FFF7A9FF10BD8B
:101A40002C030020064B1B78002B08D105490A788F
:101A500001339A430A70024A1370034A13707047A5
:101A600000030020F4020020EF020020024A137855
:101A700004218B4313707047EF02002070B52E498C
:101A80004A88130A1B06D2B2120413430A88100AAA
:101A900000020343D2B21343284C636089880A0AC8
:101AA0001202FF230B4013432381254B1D6806358B
:101AB00020000A300422290008F002FE80235B0087
:101AC000E381082222821F4A6282A382200016300C
:101AD0000622290008F0F4FD1B4D6B68E36120002D
:101AE00020300622002108F0F4FD184B1B88AA883C
:101AF0005340174A12791A4208D1144B5A88124B94
:101B00005979134BDB880B409A420ED011490422BD
:101B10000431114808F0D4FD084B2A221A600F4AFC
:101B2000137802210B43137070BD04480422074947
:101B3000263008F0C5FDEFE7DC0200200000102091
:101B40002C03002006040000B0000020E402002066
:101B5000B8000020A8000020260010200C03002060
:101B600070B5234D6A88130A1B06D2B212041343C0
:101B70002A88110A09020B43D2B213431D4C636039
:101B8000A9880A0A1202FF230B40134323811A4B30
:101B90001E68063620000A300622310008F090FD4B
:101BA000C123DB00238280235B006382F83BA38296
:101BB000124BE38280239B00238320001A300622ED
:101BC000310008F07DFD0E4B5B6823622B68636279
:101BD000AB88238520002A3004220A4908F070FDD2
:101BE0002A232360084A137802210B43137070BD27
:101BF000DC020020000010202C030020060400005E
:101C0000B0000020D80200200C03002030B583B0C3
:101C100004001E4B18601E4D2860811D06221D48C1
:101C2000FFF7A6FE29688A89C123DB009A4204D007
:101C3000194B0022E25403B030BDCA8980235B00F7
:101C40009A42F5D10B8A082BF2D14A8A134B9A4259
:101C5000EED18A8A80235B009A42E9D11C310422AA
:101C60000F48FFF785FE0A4B19682631042201A8A8
:101C7000FFF77EFE0B48042201A9043008F012FD94
:101C80000028D5D1FFF76CFFD2E7C046180300202B
:101C900030030020DC020020EC05000006040000F8
:101CA000D8020020B000002010B5040001F02EF88A
:101CB000014B1C60586010BDB000002010B504003E
:101CC00001F024F8014B1C60586010BDA8000020F2
:101CD00010B5040001F01AF8014B1C60586010BDEB
:101CE000B8000020004870472403002000487047D7
:101CF0001C03002070B505000C00002A08D100204C
:101D0000012C17D92B88C018023CA4B20235F7E782
:101D10000F4B9888DE8880190E4B1E8830185E881D
:101D20003618080001F000F88619062000F0FCFFC4
:101D30008019E5E7002C01D02B78C018030C03D0E4
:101D40000004000C1818F9E7C04380B270BDC0460B
:101D5000B0000020E4020020F0B5C64600B5070040
:101D60000E0014001D0006AB1B78002B08D10020CC
:101D7000012C19D93B88C018023CA4B20237F7E7FE
:101D8000164B9A88D88890468044154B1888804412
:101D900058888044601980B200F0C6FF8044062055
:101DA00000F0C2FF4044E3E7002C01D03B78C018AC
:101DB000012D04D932888018023D0236F8E7002D43
:101DC00001D03378C018030C03D00004000C18189D
:101DD000F9E7C04380B280BCB846F0BDB000002037
:101DE000E4020020F0B583B006000C006B46002131
:101DF000D98001250540002A12D10023002D06D0EC
:101E0000002C04D031786A46D171013C0136B2070A
:101E10001AD0012C18D932889B18023C023613E0E4
:101E2000254A9388D788DB19244A1788FB185788D6
:101E3000FF18A0B200F078FFC719062000F074FF69
:101E4000C319DBE7083C0E00072C0CD93268D21806
:101E5000934200D901323100083173689B189A42CD
:101E6000F0D90133EEE7180C1B041B0CC318012C2E
:101E700004D932889B18023C0236F8E7002C02D0C5
:101E800031786A4691716A4606321288D318180C66
:101E90001B041B0CC318180C1B041B0CC018002DB2
:101EA00005D00206120C000AFF2318401043C0435D
:101EB00080B203B0F0BDC046B0000020E4020020B4
:101EC000074B00221A70074B04321A70064A137827
:101ED00004210B43DBB208210B4313707047C0464B
:101EE00001030020EE020020F402002010B5124B86
:101EF0001B78042B02D0072B00D010BD0F4B1B7892
:101F00001A07FAD50E4A11600E4A10600822934350
:101F10000A4A13700C4A13681B18136036300B4BB7
:101F200018600B4A137801210B431370094B0422EC
:101F30001A70FFF7C5FFE0E700030020EF02002062
:101F400034030020040300200803002010030020B5
:101F50000C030020D402002010B5FFF7C7FF10BD0E
:101F6000054B00221A70054A137804210B43DBB29B
:101F700008218B431370704701030020F4020020F6
:101F8000014B00221A70704701030020024A1378A7
:101F900004218B4313707047F4020020094B002288
:101FA0001A70094B1A7803231340012B06D0074BF4
:101FB00020221A70044B00221A707047034B102223
:101FC0001A70F7E700030020F4020020EF0200205F
:101FD00010B50E4C0021200004F0E5FE0021200089
:101FE00004F0EBFE0A4A136801331360094A1378C0
:101FF00001331370084B1B78002B04D001210348D8
:1020000004F0D1FE10BDFFF71DFDF7E7000007400B
:10201000D002002001030020000300200B120370F7
:1020200041707047F8B5394B1D88394B9D4200D936
:1020300068E01C3DADB22E001C36364B1E603649A2
:102040004A88130A1B06D2B2120413430A88100AE4
:1020500000020343D2B21343304C636089880A0AFA
:102060001202FF230B40134323812D4B19680631C5
:1020700020000A30062208F023FB082323823D3388
:102080006382B1B220001430FFF7C8FF254F3B68D0
:102090005B8AE38200262683234800F045FE6083A6
:1020A000A68320001E3021490422043108F008FBD9
:1020B0002000223004221E4908F002FB20001230CA
:1020C00000221421FFF716FEA083E68426853968D6
:1020D000CB8C63850B8DA3852A3120002E302A00FE
:1020E000FFF746FC29000831200026300022FFF7C8
:1020F00079FE20852A3525600E4A137802210B438C
:102100001370F8BDB825ED0095E7C046E202002047
:10211000DC05000014030020DC0200200000102079
:102120002C030020C802002001FF0000B0000020A6
:10213000D80200200C03002010B5074B1B68588CF8
:1021400000F0F2FD0012082801D0002010BDFFF7BA
:1021500069FF0120FAE7C046C80200200B0E037099
:102160000B0C43700B0A8370C1707047F8B5050003
:1021700050494A88130A1B06D2B2120413430A8834
:10218000100A00020343D2B213434B4843608988CC
:102190000A0A1202FF230B4013430381474B1968BD
:1021A00006310A30062208F08BFA02231F002F4066
:1021B0002B4263D0424B2C221A603F4B08221A82DA
:1021C0003D325A82002F5DD02C2000F0ADFD3A4BFD
:1021D0009882394C0026E68226833A4800F0A4FD16
:1021E0006083A68320001E3037490422043108F0A2
:1021F00067FA200022300422344908F061FA2000F6
:10220000123000221421FFF775FDA083304B19888E
:1022100020002630FFF702FF2E4B198820002830BF
:10222000FFF7FCFE2C4B196820002A30FFF796FFC1
:102230002A4B196820002E30FFF790FF284BA38609
:10224000E6862687002F23D0C020C001284300F057
:102250006BFD194C6086234B6387214BA3872000BD
:10226000263001221821FFF745FDE0863A2323603E
:102270001D4A137802210B431370F8BD104B28221E
:102280001A609AE7282000F04FFD0B4B9882A0E7D8
:10229000A020C001284300F047FD074C60862000C5
:1022A000263001221421FFF79DFDE08636232360AE
:1022B000DEE7C046DC020020000010202C030020D6
:1022C0001403002006FF0000B0000020E4020020FC
:1022D0001C030020A6000020FC020020F0020020C9
:1022E0002DA0FFFF020400000C030020F0B5CE4635
:1022F00000B582B0C64D2B68588C00F015FD040067
:1023000001902B68988C00F00FFDC24B1B88834214
:1023100003D002B080BCB946F0BDBD4F3B68D88C3D
:1023200000F002FD06043B68188D00F0FDFC06433A
:102330003B68588D00F0F8FC05043B68988D00F070
:10234000F3FC284381463B68D88D00F0EDFC070084
:1023500085123C232B40B04A1588ED1AADB2143DCE
:10236000ADB2AE4B9D42D4D8AD4B1B78012B3CD0C7
:10237000022B6CD0002B12D00422AA49AA4808F0E4
:1023800091F90028C5D1A94B1B88019A934200D12D
:10239000B6E00023A24A1370A54A1370B9E74307B9
:1023A000B7D4A24B1C80A34BA34A11681960928832
:1023B0009A809C4B1A689C4B1A60C3060ED49F4BA4
:1023C00000221A60AD199E4B1D60830702D00135B3
:1023D0009B4B1D601420FFF7C9FE9AE7974B4A46B6
:1023E0001A600420FFF7C2FE93E7430700D590E789
:1023F0008E4B1C808F4B904A1168196092889A808E
:10240000884B1A68884B1A60C30619D4830700D416
:102410007FE701368A4B1E608A4B1B681B04874A84
:1024200013600133884A13601220FFF79FFE874B29
:1024300002221A70FFF744FD794B03221A7068E7F5
:102440007E4B4A461A600420FFF790FE61E70422A3
:102450007449754808F026F9002800D059E7734BF5
:102460001B88019A934200D053E710231A003A4088
:102470003B420DD0744B1B684B4509D07B0700D500
:1024800047E76E4B4A461A600430FFF76FFE40E79D
:102490007B070BD5002A00D13BE70023604A13706D
:1024A000634A13706A4B30221A7032E7BB0700D4BC
:1024B0002FE70136624B1E60002A13D0FFF766FD3E
:1024C000614B1A685D4B1A601020FFF74FFE544BAA
:1024D00004221A705E490A7802231A430633134312
:1024E0000B7016E7FFF752FD1220FFF73FFE574B28
:1024F00002221A70FFF7E4FC494B03221A7008E726
:102500004F4B1B68B34200D003E77B0708D500237D
:10251000434A1370464A13704D4B30221A70F8E646
:10252000BB072CD4FB0600D4F3E6474B1B684B4596
:1025300031D03B4B1B78043BDBB2022B06D8002D7D
:1025400004D0434B1A78530700D485E0FB0700D42E
:10255000DFE6334B1B78062B00D19FE000D994E0D7
:10256000042B00D887E0052B00D086E02C4B0822F6
:102570001A70374A137802218B4313707DE00420D0
:10258000FFF7F4FD0023264A1370294A1370304BDD
:1025900040221A70BDE6FFF7F9FC2B4B1A68274B57
:1025A0001A601F4B1B78033BDAB2072A0CD8DBB248
:1025B0009B00284AD3589F46194B04221A70244A7C
:1025C000117802230B431370154B1B78042BB0D1E9
:1025D0001F4A117804330B431370AAE7104B0622ED
:1025E0001A70F1E70E4B0A221A70EDE700230C4A2D
:1025F00013700F4A1370164A137804210B4013709E
:10260000E2E71020FFF7B2FDFFF7BAFCDCE7C046B7
:10261000CC0200201C030020E2020020A02D0000BC
:1026200000030020D8020020E4020020A6000020C1
:10263000F4020020E8020020DC020020FC0200205E
:10264000F0020020D002002008030020D402002065
:10265000EF0200209CB80000164B1D6004231343BA
:10266000154A1370154B1A68944665441D60102076
:10267000FFF77CFD6AE7032B0CD2104A1368013385
:1026800013601020FFF772FD43E60A2BF5D1FFF728
:1026900077FCF2E70A4B07221A70EEE7FFF760FCBF
:1026A000074B0A221A70044A137802218B431370D5
:1026B000E3E7C046F8020020EF020020F00200200D
:1026C0000003002030B583B00100564B1860564B14
:1026D0001860564C2060564B1860564B18600631F7
:1026E00006225548FFF744F92368988900F01CFB3F
:1026F00080231B01984254D0504B984258D1504BE4
:102700001A7803231340012B29D0474B1968CA8933
:1027100080235B009A424BD10B8A082B48D14A8A0E
:10272000484B9A4244D18A8A80235B009A423FD127
:102730001C3104224448FFF71BF93B4B1968263132
:10274000042201A8FFF714F94048042201A904302B
:1027500007F0A8FF00282BD1FFF702FA28E0334B3F
:102760001B68D98980225200914221D11A8A082AF5
:102770001ED1598A334A91421AD19A8A80239B00EA
:102780009A4215D1FFF702FC284B19681631062230
:102790002F48FFF7EDF82A4A117802230B431370F4
:1027A00006E0234B1A68D189FF230B40452B01D04B
:1027B00003B030BD108A00F0B7FA264B18801C4BCE
:1027C0001B68988A00F0B0FA8004F1D1184D2B688C
:1027D000D88A00F0A9FAC4B229681A3104221A482A
:1027E000FFF7C6F829681E31042201A8FFF7C0F8D8
:1027F0001648042201A9043007F054FF0028D7D15D
:10280000012C04D0062CD3D1FFF770FDD0E7FFF7E1
:1028100093FC0028F8D0034B1A680F4B0021D154C9
:10282000C6E7C0461803002030030020C402002081
:10283000C8020020CC020020DC02002006080000B4
:10284000F402002006040000D8020020B00000209E
:10285000E8020020E2020020EC05000010B50E4B5B
:102860001B78042B05D89B000C4AD3589F46FFF7D2
:1028700005F910BD0220FFF779FCFAE71220FFF7F7
:1028800075FCF6E71120FFF771FCF2E7044A1378B4
:1028900001210B431370ECE7D4020020BCB8000008
:1028A0000C03002070B582B04F494A88130A1B06FA
:1028B000D2B2120413430A88100A00020343D2B2B0
:1028C00013434A4C636089880A0A1202FF230B40B3
:1028D00013432381464B1968063120000A30062233
:1028E00007F0EEFE082323823D336382414B1968D3
:1028F000283189B220001430FFF790FB3E4D288824
:10290000431C2B8000F010FAE0822A883B4B534393
:1029100080225202934202DB374B01221A80334C51
:1029200000252583364800F0FFF96083A583200049
:102930001E3034490422043107F0C2FE2000223048
:102940000422314907F0BCFE20001230002214217D
:10295000FFF7D0F9A0832D4B1988260026363000CA
:10296000FFF75CFB2A4B198820002830FFF756FB45
:10297000284B196820002A30FFF7F0FB264B196816
:1029800020002E30FFF7EAFB244800F0CDF96086E6
:10299000234BA386E5862587164B1B68214A1168C1
:1029A0000122009213323000FFF7D6F9E0860023AF
:1029B000104A12689A4208D91A4A11681A00363227
:1029C000C85A194988520233F2E7002B06D0154A3B
:1029D00011681A003632C95A134B9952134B1A68B0
:1029E000024B1A6002B070BDDC020020F00510201E
:1029F0002C03002004030020A40000206605000032
:102A000006FF0000B0000020E40200201C030020AC
:102A1000A6000020FC020020F00200201050000060
:102A20002DA0FFFF34030020F40510201003002028
:102A300010B5040002216E4804F0D2F9002834D108
:102A40006C4B1B785A0705D51B0747D56A4B1B787B
:102A50000A2B31D8694B1B78042B4ED8032B00D39B
:102A60006DE0012B55D8634B1B78DA0751D59B07D6
:102A70004FD5634B1B789B074BD45D4804F09FF9FF
:102A80000004604B1860604B00221A6001305F4BFD
:102A900018600220FFF76AFB5D4B01221A70FFF7F6
:102AA0000FFA564B02221A7033E00221504804F00C
:102AB0009EF9FFF78DFAC3E7FFF762FA554B1B78D3
:102AC000002B06D0FFF7CAFE524A1378013B137061
:102AD000C0E7FFF75BFAFFF761FABBE7464B1B78ED
:102AE000022BB7D90023454A1370424A13704A4A51
:102AF000117804330B401370ACE7072B09D1404B1E
:102B00001B789B0705D13F4B1A68404B1B689A42C4
:102B100032D03B4B1B789B073DD4384B1B78042BA2
:102B200044D0374B1B78DB0754D43C4B1B68002B3D
:102B300004D000223A495A54384B1A6010BD2D4B2C
:102B40001B78DB06E5D52E4B1B789B07E1D12D4B7F
:102B50001A682E4B1B689A42DBD101332B4A136053
:102B60001120FFF703FB2A4B03221A70FFF7A8F985
:102B7000224B05221A70CCE70133244A136011203E
:102B8000FFF7F4FA224B03221A70FFF799F91B4B57
:102B900009221A70BDE7234904C9200003F052FD41
:102BA000174A137802218B431370B6E71A4B1B7830
:102BB0001A07B6D55B07B4D51B4A1C4B1B681360BC
:102BC000164B1B6836335360194B5B689847FEF70A
:102BD0004DFFA6E7FFF766FE164904C9200003F083
:102BE00031FD074A137801218B4313709DE7C046DE
:102BF00000000740F4020020010300200003002031
:102C00000C030020FC020020F0020020080300203A
:102C1000D4020020EE020020EF0200201803002062
:102C2000EC0500000000102024030020F802002022
:102C30001C030020F0051020BFF34F8F024B034A06
:102C4000DA60BFF34F8FFEE700ED00E00400FA0505
:102C5000064B1B68002B04D0044A1368013B136029
:102C60007047034B00221A60FAE7C0463803002081
:102C700010E000E0044B01225242C02149005A50AA
:102C80000139FF395A50704700E100E0030007287E
:102C90000CD90020072B04D9013080B2083B9BB22D
:102CA000F8E7002B03D0013080B200E0012070472C
:102CB00010B503F0F9FF012003F00AFE03F08AFFCC
:102CC0000128FBD10F21023003F044FE012003F064
:102CD0006DFE03F0FDFF0128FBD18024640020007D
:102CE00003F07CFE012003F053FE200003F076FE8B
:102CF00011200021404203F07DFE002003F064FE1D
:102D000010BD43780078000218437047030E020A92
:102D1000FF2109020A4013430202FF2109040A406D
:102D20001343000618437047030A0002184380B299
:102D3000704710B50A00002107F0CBFC10BD000061
:102D400010B572B6FFF796FFFFF7B2FF0121102012
:102D500003F050FE0121164803F04CFEFFF78AFFF6
:102D600002F038FC022008F073FD00010309802006
:102D7000400518430F4B1860030E0F4C2370030CD3
:102D80006370030AA370E070FF2323716371A37162
:102D9000E01D1E22094907F093FC2521200002F0C6
:102DA0003BFC020A2523E2540133E05410BDC04627
:102DB00000011000DC030020E0030020C000002020
:102DC00010B5FFF739FF10B5FFF736FF10B5FFF765
:102DD00033FF0000F0B5DE4657464E464546E0B5A7
:102DE00089B006000F000192029312AB19788B464E
:102DF00013AB1978039114AB1878814615AB18788A
:102E00008246174880467400A519AD00454401214B
:102E1000A86803F0EFFD05A9029808720023CB71A2
:102E2000019A8A725A468A708B714B710F80534691
:102E30005A1E93410B714B465A1E9341CB70039B14
:102E40004B72686803F0A4FC6A681368BB431360A4
:102E500009B0F0BCBB46B246A946A046F0BDC0468C
:102E6000E0000020F0B5CE46474680B585B08946E3
:102E70001600134B984644002518AD004544012127
:102E8000A86803F0B7FD01A900230B72CB710120E4
:102E900088728E708B714B714A460A80724256411D
:102EA0000E71CB7048726A6813684846834313609A
:102EB000686803F06DFC05B0C0BCB946B046F0BD13
:102EC000E0000020F0B589B001AC019002910392BE
:102ED000C6B2144F7500AB199B00FB18986801210E
:102EE00003F088FD637905A90B720023CB71227969
:102EF0008A72A2798A708B714B7163880B80637AB6
:102F00005A1E93410B71237A5A1E9341CB70E37979
:102F10004B72AD19AD007D19686803F039FC09B03A
:102F2000F0BDC046E000002010B503004000C0180E
:102F30008000034B1818406803F0C5FC10BDC04664
:102F4000E000002010B503004000C0188000034BD3
:102F50001818406803F0B9FC10BDC046E00000201E
:102F600010B503004000C0188000034B18184068DB
:102F700003F0A2FC10BDC046E0000020014B64221B
:102F80009A6070470804002010B5994203D800D019
:102F900010BD9042FCD905F0ADFB10001900F7E719
:102FA000F0B5D6464F464646C0B5804617001E00CF
:102FB00008AB1B789A4609AB1B7899460121202063
:102FC00007F00AFB040007F043FC050007F040FC93
:102FD0006840C1173A003300FFF7D6FF20616161F6
:102FE000A760E660434623600023A361534623772E
:102FF0004B466377084B1B68002B0AD0064B5B6877
:103000009C61054B5C602000E0BCBA46B146A84616
:10301000F0BD014B1C60F4E70804002070B582B0DD
:1030200004001000190006AB1D7807AB1E78FA22C9
:103030009200002305F07EFB02000B000196009534
:103040002000FFF7ADFF02B070BD000000B583B0F7
:1030500003230193023B00930A2200231148FFF748
:10306000DDFFFFF78BFF0823642200210120FEF71C
:1030700081FB002201210120FEF7FCFB012202213D
:103080000120FEF7F7FB0120FEF7B6FB0621012029
:10309000FEF72EFC0120FEF703FC034BFF221A7300
:1030A00003B000BD7D2F0000080400200300044A87
:1030B000106802689A4202D080690028F9D17047EE
:1030C0000804002030B50D4B1B68002B12D0186986
:1030D000596905E02500154301D0200011009B69C6
:1030E000002B09D01C695A699142F3D8F7D1A0424C
:1030F000F5D9EFE70020002130BDC04608040020CC
:10310000D0B52D4B1B68002B05D02C4B1C681B69C0
:10311000002B50D020E00120FEF7E2FB264B186088
:10312000F3E7264909690E000027921BBB41226183
:1031300063612369626913430BD162B672B6236877
:10314000984723696269134303D1A268E368226147
:103150006361A469002C19D0237F002BF9D0174B91
:103160001B7BDBB2627F1341DB07F2D52269636907
:10317000124908690021002BD3D18B4201D1824230
:10318000CFD80022002322616361D2E70B4B0022DB
:103190001A61FFF797FF002908D103D180235B0252
:1031A000984203D2014302D10A2000E00448024BB6
:1031B0001B68986062B6D0BD3C0300200804002064
:1031C000FFFF000010B5104B1B68002B11D00E4BF9
:1031D0001B685A6D03218A435A659A680B4B1A6122
:1031E00019699A68002A0ADB084A93685B1A936097
:1031F00010BD0120FEF774FB034B1860E7E7FFF7F3
:103200007FFFFFF7BBFEF3E7400300200804002028
:103210008268C36802614361704700230377704787
:103220000123037770470000F0B5C64600B50400DF
:10323000006803000A3B012B05D92368C82B65D021
:1032400080BCB846F0BDFDF71FFFCA23DB00C358A2
:103250005A7919790902521892B29446DA78997813
:103260000902521892B29046197896225200A1543F
:103270005A782E23FF33E25463465A0097235B00AB
:10328000E2540733FF330122E25200272DE0534B73
:103290001B88D900411849888E420ED001334F490E
:1032A0000B80013292B2132A0FD84C4B1B88132B80
:1032B000EDD94A4B00211980E9E7D900095C0029C2
:1032C000ECD0DD004019436800E000231A887B0041
:1032D0000133110AE3182F33FF33197001377B00D4
:1032E000E3182F33FF331A70BFB2674507D2434646
:1032F000FE18B6B292239B00E0580022D3E7634643
:103300005B0001338D229200A35296E7A37D1B023E
:10331000E27D1A439046227E1202637E13431AB264
:103320009C46218990235B00E15261890233E1527E
:10333000217D0A33E154617D2E23FF33E154530094
:1033400097225200A3548D239B002E3AFF3AE2525B
:1033500000272DE0214B1B88D900411849888E4257
:103360000ED001331D490B80013292B2132A0FD8BF
:103370001A4B1B88132BEDD9184B00211980E9E754
:10338000D900095C0029ECD0DD004019436800E059
:1033900000231A887B000133110AE3182F33FF330F
:1033A000197001377B00E3182F33FF331A70BFB257
:1033B000674507D24346FE18B6B292239B00E058F9
:1033C0000022D3E763465B0001339BB28D2292005B
:1033D000A3520233113AFF3AA35231E744030020CB
:1033E000F0B5C64600B50400006803000A3B012B97
:1033F00006D92368C82B00D16BE080BCB846F0BD6D
:10340000FDF742FECA23DB00C3585A791979090235
:10341000521892B29446DA7899780902521892B208
:103420009046197896225200A1545A782E23FF33E1
:10343000E25463465A0097235B00E2540733FF339C
:103440000122E252002733E0594B1B881D001A006D
:103450001432D2008218528896420ED00133544A58
:103460001380013189B2132912D8514B1B88132BB9
:10347000EAD94F4B00221A80E6E71A001432D20034
:10348000125C002AEAD01435ED004019436800E0D0
:1034900000231A887B000133110AE3182F33FF330E
:1034A000197001377B00E3182F33FF331A70BFB256
:1034B000674507D24346FE18B6B292239B00E058F8
:1034C0000021D0E763465B0001338D229200A352B6
:1034D0008FE7A37D1B02E27D1A439046227E1202F3
:1034E000637E13431AB29C46218990235B00E1520C
:1034F00061890233E152217D0A33E154617D2E233B
:10350000FF33E154530097225200A3548D239B00B4
:103510002E3AFF3AE252002733E0254B1B881D006C
:103520001A001432D2008218528896420ED001330B
:103530001F4A1380013189B2132912D81C4B1B88F2
:10354000132BEAD91A4B00221A80E6E71A0014322C
:10355000D200125C002AEAD01435ED00401943680D
:1035600000E000231A887B000133110AE3182F338F
:10357000FF33197001377B00E3182F33FF331A70C4
:10358000BFB2674507D24346FE18B6B292239B00EE
:10359000E0580021D0E763465B0001339BB28D22E7
:1035A0009200A3520233113AFF3AA35225E7C046D4
:1035B00046030020F8B5CE46474680B5040005799D
:1035C000002D00D042E1006803000A3B012B04D922
:1035D000C82800D1A0E0FF2539E1FDF755FDCA2339
:1035E000DB00C3589A781202D978114389461A79B8
:1035F00012025979521892B290465B78062B1DD070
:1036000018D8DA1ED2B2012A00D925E14246013A81
:1036100092B27C2A00D921E192229200A058032B79
:103620003CD0062B3DD0102B3ED0042B71D0042370
:10363000A3710CE1102BE9D0012508E1012290468D
:10364000E4E78D4B1B88D900411849888F420ED082
:10365000013389490B80013292B2132A0FD8864B6D
:103660001B88132BEDD9844B00211980E9E7D90081
:10367000095C0029ECD0DE008619736800E00023A5
:10368000002B00D1ECE0634601339BB29C46E04541
:10369000CDD967464F44BFB20022DEE700239C46E7
:1036A000F5E700239C46F2E700239C46EFE7734BC7
:1036B0001B881A001432D2008218528897420ED00A
:1036C00001336E4A13800136B6B2132E12D86B4BFB
:1036D0001B88132BEBD9694B00221A80E7E71A00ED
:1036E0001432D200125C002AEAD01433DB00C31873
:1036F0005B6800E00023002B00D1B3E06346013398
:103700009BB29C46E04592D967464F44BFB2002623
:10371000DBE700239C46F5E7FEF7E4FA43681A7AF4
:103720001202597A114389469A7A1202D97A1143C0
:103730008846DB79062B1DD018D8DA1ED2B2012AB2
:1037400000D991E04246013A92B27C2A00D98DE03C
:1037500092229200A058032B3BD0062B3CD0102B7A
:103760003DD0042B6FD00423A37170E0102BE9D05F
:1037700001256CE001229046E4E73F4B1B88D9000D
:10378000411849888F420ED001333B490B800132EA
:1037900092B2132A0FD8384B1B88132BEDD9364B16
:1037A00000211980E9E7D900095C0029ECD0DE008E
:1037B0008619736800E00023002B59D0634601335B
:1037C0009BB29C46E045CED967464F44BFB200222B
:1037D000DFE700239C46F5E700239C46F2E7002341
:1037E0009C46EFE7254B1B881A001432D200821842
:1037F000528897420ED00133204A13800136B6B268
:10380000132E12D81D4B1B88132BEBD91B4B0022F8
:103810001A80E7E71A001432D200125C002AEAD0BC
:103820001433DB00C3185B6800E00023002B21D0B9
:10383000634601339BB29C46E04594D967464F44AA
:10384000BFB20026DCE700239C46F5E7FF252800F1
:10385000C0BCB946B046F8BD0125F8E70225F6E739
:103860000225F4E70225F2E70125F0E70225EEE75D
:103870000225ECE70225EAE7440300204603002086
:1038800070B505000E0093200121800006F0A4FE13
:1038900004000560002303714671A220012140004D
:1038A00006F09AFE92239B00E0502B000A3B012B6E
:1038B00014D9C82D2DD00121082006F08DFE050059
:1038C00000F01AFD002831D000F016FD020040681B
:1038D0000028FBD155602C60200070BD2800FDF74A
:1038E00051FC2800FDF7D0FB06002800FDF710F979
:1038F000104B3360104B73602800FDF739FB280034
:10390000FDF70CFB2800FDF7F5F8200000F00EFD98
:10391000CFE7FEF7EBF90500FB204000FEF782F849
:10392000064B6B60C82001F01DFEC4E7280000F0C4
:10393000E9FCD0E785430000A54300001B440000DC
:1039400070B504000579002D41D196235B00C15C60
:1039500000293FD0006803000A3B012B12D92368DD
:10396000C82B35D15C33E05A063021002731FF31B6
:10397000FEF7F2FA91229200A3580133A3500223DA
:10398000A37125E0FDF73AF92E23FF33E15C2068AF
:10399000FDF734F98D239B00E25A21002F31FF31CE
:1039A0002068FDF75BF926680B4BE05AFFF7BCF97E
:1039B00001003000FDF746F92068FDF7CDFC9122AB
:1039C0009200A3580133A3500223A371C7E7002537
:1039D000280070BD0225FBE73202000070B504002C
:1039E0000D00006803000A3B012B03D92368C82B94
:1039F00022D070BDFDF748FB627996235B00E2544C
:103A0000CA23DB00C3585B78803B2E22FF32A354CD
:103A10008D239B002D3AFF3AE252073BFF3BE554D2
:103A200020002D30FF30032101F0DEFD214BE0525C
:103A30002000FFF785FFD9E7FEF754F9060042683A
:103A400013781B0250781843208171688A7812021B
:103A5000CB781343638190225200A0520232A352CA
:103A6000FFF762F993235B00E0526089FFF75CF98E
:103A700094235B00E05262790433E2547368DB798B
:103A8000803B2E22FF32A3548D239B002D3AFF3A18
:103A9000E252073BFF3BE5540A3B0232E25203206D
:103AA000FFF742F995235B00E0522000FFF748FF43
:103AB0009FE7C04632020000F8B50400006803002A
:103AC0000A3B012B03D92368C82B50D0F8BDFDF762
:103AD000DBFACA23DB00C758FE78BB781B02F61856
:103AE000B6B292239B00E05800220BE04A4B1B88A1
:103AF000D900411849888E420ED0013346490B80C7
:103B0000013292B2132A0FD8434B1B88132BEDD9E5
:103B1000414B00211980E9E7D900095C0029ECD06C
:103B2000DD004019416800E000217B793A791202FA
:103B30009B180B803A7896235B00E2547A782E2308
:103B4000FF33E254BA780133E254FA783023FF337A
:103B5000E2540B881B0A98225200A3540A7832239D
:103B6000FF33E2540433FF330422E252ABE7A07D7B
:103B70000002E37DC01880B292239B00E658002229
:103B80000BE0254B1B88D9007118498888420ED05C
:103B9000013321490B80013292B2132A0FD81E4BF8
:103BA0001B88132BEDD91C4B00211980E9E7D900A4
:103BB000895D0029ECD0DD007619726800E00022F2
:103BC000237E1B02617E5B181380218990235B009A
:103BD000E15261890233E152217D0A33E154617D72
:103BE0002E23FF33E15400210133E1543023FF330E
:103BF000E05413881B0A3131FF31635412783223A9
:103C0000FF33E2540433FF330422E252113BFF3B03
:103C10000232E2525AE7C04644030020F0B5D646CD
:103C20004F464646C0B50400006803000A3B012B1E
:103C300008D92368C82B00D177E0E0BCBA46B1466A
:103C4000A846F0BDFDF720FACA23DB00C3589A4608
:103C500099465B795246127912029B189BB29C4698
:103C60005346DB785246927812029B189BB29846D4
:103C700000272DE0614B1B88D900411849888D42EF
:103C80000ED001335D490B80013292B2132A0FD856
:103C90005A4B1B88132BEDD9584B00211980E9E7AB
:103CA000D900095C0029ECD0DE008019416800E0F1
:103CB000002100290AD03B1D5B004A46D35C7A00F4
:103CC00007324846825C12029B180B800137BFB254
:103CD000674507D24346FD18ADB292239B00E058DA
:103CE0000022D3E753461A7896235B00E2545346EA
:103CF0005A782E23FF33E25453469A7897235B0079
:103D0000E2545346DA783023FF33E25453461A79AB
:103D100098235B00E25453465A793223FF33E2542E
:103D20000433FF330422E25283E7A37D1B02E27DCA
:103D30001A439046237E1B02627E1A439446002754
:103D40002DE02E4B1B88D900411849888E420ED099
:103D500001332A490B80013292B2132A0FD8274B24
:103D60001B88132BEDD9254B00211980E9E7D900D9
:103D7000095C0029ECD0DD004019416800E0002119
:103D800000290AD07B000533E3189B7D1B02FA1C37
:103D90005200A218927D9B180B800137BFB2674575
:103DA00007D24346FE18B6B292239B00E058002289
:103DB000D3E7228990235B00E25262890233E25208
:103DC000227D0A33E254627D2E23FF33E254A27D2A
:103DD0000133E254E27D3023FF33E254227E01338B
:103DE000E254627E3223FF33E2540433FF33042271
:103DF000E252113BFF3B0232E2521EE74403002035
:103E000070B50400002500E000BF206803000A3BF5
:103E1000012B0DD92368C82B11D0062D2AD010D81C
:103E2000032D14D0042D15D12000FFF7D9FA11E08D
:103E3000FDF72AF9CA23DB00C3585D78EAE7657D00
:103E4000EBE7102D06D12000FFF7E8FE02E020008E
:103E5000FFF7EAF923680A3B012B0FD92368C82B27
:103E600018D0200000E000BF2000FFF769FD02230A
:103E7000A37170BD2000FFF71FFEEBE78D239B00B1
:103E8000E15A023120002D30FF3001F0ADFB0B4B29
:103E9000E052E3E72089FEF747FF93235B00E052FF
:103EA0006089FEF741FF94235B00E052043BE05A37
:103EB000FEF73AFF95235B00E052D2E732020000A2
:103EC000F0B592239B00C558093BFF3BEF5A132FD7
:103ED00020D8002301E001339BB2132B0ED8D80069
:103EE0002818448888B28442F5D1D800405D002863
:103EF000F1D0DE00AD196A6000200AE0FB00E8188E
:103F00004180426001225A550137A0235B00EF52E5
:103F10000020F0BD0320FCE7F0B592239B00C658BB
:103F2000073BFF3BF75A132F28D8002301E001334A
:103F30009BB2132B14D81D0018001430C000301889
:103F4000448888B28442F2D118001430C000805DE9
:103F50000028ECD01435ED007619726000200CE0DA
:103F60003B001433DB00F0184180426001229A5577
:103F70000137A1235B00F7520020F0BD0320FCE7CE
:103F800010B5006803000A3B012B03D9C8285FD095
:103F9000002010BDFDF778F8CA23DB00C458637811
:103FA000207900026279801880B2102B00D99DE040
:103FB0009B00504AD3589F4680239B00E05A083804
:103FC00043425841C0B2E4E780239B00E05A0838DE
:103FD00043425841C0B2DCE780239B00E05A0838D6
:103FE00043425841C0B2D4E7FEF750FEA279904256
:103FF00002D00020C0B2CCE780239B00E35A0932F4
:10400000934201D00020F5E70120F3E780239B00D5
:10401000E05A083843425841C0B2BAE780239B00B7
:10402000E05A083843425841C0B2B2E780239B00AF
:10403000E05A083843425841C0B2AAE780239B00A7
:10404000E35A40000930181A43425841C0B2A0E771
:10405000FDF748FE04004168CA798B7A1B02C87AD2
:104060001B189BB2102A43D8920023498A589746BE
:1040700020680C3843425841C0B28AE720680C38A7
:1040800043425841C0B284E720680C38434258414B
:10409000C0B27EE71800FEF7F9FD63681A7B904214
:1040A00002D00020C0B274E723680932934201D0E5
:1040B0000020F7E70120F5E720680C38434258411B
:1040C000C0B266E720680C3843425841C0B260E78E
:1040D00020680C3843425841C0B25AE720685B0060
:1040E0000D33181A43425841C0B252E7002050E73E
:1040F00000204EE7D0B8000014B90000F8B5040065
:10410000006803000A3B012B06D900252368C82B51
:1041100000D17EE02800F8BDFCF7B6FFCA23DB0023
:10412000C5582A7863799A4204D00025200000F00F
:10413000FDF8EBE780239B00EB5A042B01D8002508
:10414000F4E78E229200A3580133A3508F235B0023
:104150000022E2548027BF00E95B0239280001F009
:1041600043FA0600EB5B9A1EAA5C013BEB5C1B0268
:10417000134398420DD080239B00EB5A5A1EAA5C31
:10418000002A3DD08F229200A3580133A35000256E
:10419000CCE72000FFF7F4FE0028ECD02000FFF76A
:1041A00009FA011E03D0FF2820D10025BEE7902286
:1041B0009200A3580133A3502B7823756B78637555
:1041C000EA5B043AA91C2000163006F079FAEB5B92
:1041D000043B8E225200A3528D235B00E652012540
:1041E0000433E5542000FFF70BFE9FE78F22920077
:1041F000A3580133A3502000FFF7F0FB002595E7FB
:10420000013B80229200AB522000FFF777FF0500B0
:104210008CE7FDF767FD060043689A7963799A4257
:1042200000D077E703680B2B00D873E78E2292004B
:10423000A3580133A3508F235B000022E2542000D7
:10424000FFF79EFE00280BD13368013B7268D25CF9
:10425000002A4BD08F229200A3580133A35059E774
:104260002000FFF7A7F900280CD0FF2800D151E764
:104270008F229200A3580133A35001002000FFF7C2
:10428000ADFB47E790229200A3580133A350716819
:104290000A7812024B781343238171688A781202DC
:1042A000CB781343638171680A7912024B79134307
:1042B000A38173689B7923757368DB79637520002C
:1042C0001630716808313268083A06F0F9F9336837
:1042D000083B8E225200A3528F235B001C3AFF3A08
:1042E000E2542000FFF78CFD012513E73360200026
:1042F000FFF704FF05000DE7014B18687047C04643
:104300001C040020044B1B68002B01D000207047C8
:10431000014B18600120FAE71C04002010B5213081
:10432000FF308C214900FEF704FD10BD10B50400DC
:10433000006803000A3B012B02D90023A37110BDC2
:104340000021FCF7F5FCF8E730B504000C4B1868C9
:1043500000280ED0FF2302681568A5420AD04068E5
:10436000002806D0002BF6D0013BDBB2002BF2D1A7
:10437000002030BD55798D42F1D11000F9E7C046DB
:104380001C04002010B504000021FFF7DDFF002809
:1043900002D00379012B00D010BD03212000FCF7CF
:1043A000BFFFF9E770B5040003000A3B012B02D9F7
:1043B000C82C1CD070BDFCF767FE05000021200052
:1043C000FFF7C2FF002806D000F02DFE00212000DC
:1043D000FCF7AEFCECE7CA23DB00EB5819782000B1
:1043E000FFF7B2FF0028F1D0FFF788FEEEE7FDF7F8
:1043F00079FC050000212000FFF7A6FF002802D06D
:1044000000F011FED6E76B6899792000FFF79CFF5A
:104410000028CFD0FFF772FECCE710B5C820FFF719
:10442000C1FF10BDF0B5C64600B5050093200121BF
:10443000800006F0D1F8040094200121800006F0ED
:10444000CBF8060092239B00E050256001232371E6
:104450002B000A3B012B16D9C82D54D0012108206E
:1044600006F0BAF80500FFF747FF00285CD0FFF719
:1044700043FF020040680028FBD155602C602000FB
:1044800080BCB846F0BD2800FCF77CFE2800FCF795
:10449000FBFD80462800FCF73BFB07002000FFF7F0
:1044A00045FFFCF7FBFDB96804F098F80700FCF73E
:1044B000F5FDFA21490104F091F8474332227A438D
:1044C00092B203212800FCF7EFFD194B424613601E
:1044D000184B536093600121F42006F07DF892237D
:1044E0009B00F0500121F42006F076F893239B0006
:1044F000F0502800FCF73CFD2800FCF70FFD2800D9
:10450000FCF7F8FAA8E7FDF7F1FB050090235B0044
:104510000022E252FB204000FDF784FA054B6B605D
:10452000C82001F01FF899E72800FFF7EBFEA5E788
:1045300085430000A543000070B50D0092239B0049
:10454000C458002091239B00E25A824209D9C3003B
:104550001B189B00E3181B79AB420FD0013080B2CF
:10456000F0E70123002B01D00F2A09D9002B1AD123
:10457000C300181880002018043070BD0023F1E734
:10458000231DD0008018800018182421FEF7D1FBCD
:1045900091229200A05AC3001B189B00E3181D71C2
:1045A000431CA352E4E70020E7E7000010B5040035
:1045B0000379012B01D0072010BD8379012B51D144
:1045C0002C33FF33C35C002B4ED0006803000A3B42
:1045D000012B03D9C82828D00720EDE721002D3171
:1045E000FF318D239B00E25A063292B2FCF736FB74
:1045F00002221E4BE1182068FCF730FB2068FCF714
:10460000ABFE96235B00E15C2000FFF795FF0028DE
:1046100002D043680133436091229200A3580133D2
:10462000A3500223A3710020C6E792235B00E05A47
:10463000063021002131FF31FDF78EFC96235B000F
:10464000E15C2000FFF778FF002802D043680133C7
:10465000436091229200A3580133A3500223A37117
:104660000020A9E70920A7E70220A5E73202000001
:10467000F0B5D6464F464646C0B59246984600230A
:104680009224A400025994465246012A09D0022AD3
:1046900005D1043463461F595D3CFF3C3B5B00255C
:1046A00009E09224A40063461F59593CFF3C3B5B40
:1046B000F5E70135EDB2AEB29E420CD26C00641942
:1046C000A4003C1922688242F3D122798A42F0D1B7
:1046D000E4884445EDD19E420AD05800C0188000BD
:1046E0000C3838180830E0BCBA46B146A846F0BDD0
:1046F000132B20D85C00E418A4003F1938603971EE
:104700004346FB8000233B815346022B0AD0922371
:104710009B006246D158F0228B5A01338B523800ED
:104720000830E0E793239B006246D158F0228B5A71
:1047300001338B52F3E70020D5E7F8B59224A400AB
:104740000459012A09D0022A25D19325AD006759C1
:10475000F0243C5DA446002508E09225AD00675991
:10476000F0243C5DA446F6E70135EDB265450FD275
:104770006C006419A4003C19E6889E42F4D12679A5
:104780008E42F1D126688642EED12000083003E047
:10479000FFF76EFF00E00020F8BD000070B50400D8
:1047A0001D00036818000A38012802D9C82B00D060
:1047B00070BD1029FCD889005C4B5B589F4698233C
:1047C0005B000021E1543223FF33E254F0E79823E9
:1047D0005B000021E1543223FF33E254E8E79823E1
:1047E0005B000021E1543223FF33E254E0E79823D9
:1047F0005B000021E1543223FF33E254D8E72A88DA
:1048000098235B00E2543223FF330022E254CFE7C7
:104810002B881B0A98225200A3542A783223FF3394
:10482000E254C5E798235B000021E1543223FF33B3
:10483000E25490B2FEF72AFA060099235B00E05496
:104840008D229200A35A0133A352002316E0DA0FFF
:10485000D21852105200591DA85C61182F31FF3137
:104860000870A95A9A1D090AA2182F32FF32117036
:104870008D218900625A0232625202339E4200DC6C
:1048800096E7F21A012AE2D1DA0FD218521052003A
:10489000515B5A1D090AA2182F32FF3211708D2167
:1048A0008900625A01326252E7E798235B000021D7
:1048B000E1543223FF33E25452000133E2548D229B
:1048C0009200A35A0133A352002316E0DA0FD21844
:1048D00052105200A85A591D000A61182F31FF3199
:1048E0000870991DAA5C61182F31FF310A708D2163
:1048F0008900625A02326252023399225200A25C4B
:104900009A4200DC54E7D21A012ADFD1D90FC91824
:10491000491049005A1D695CA2182F32FF321170EC
:104920008D218900625A01326252E5E758B90000D0
:10493000F8B5CE46474680B50400100008AA1278A4
:1049400025682E000A3E012E07D9C82D2DD0072537
:104950002800C0BCB946B046F8BDA579002D01D0ED
:104960000425F5E70126A6718D26B6000027A7537A
:104970002D37FF37E0552E20FF3021541F0A01301C
:1049800027543020FF302354099B2000FFF706FFF7
:10499000A15B063120002D30FF3000F025FE1C4BBE
:1049A000E0522000FFF702FED2E7A579002D01D0EA
:1049B0000425CDE70126A6718D26B600B146002656
:1049C000B4464F46E6532136FF36B046A65B013665
:1049D0004746E653912676006746A7530A36A05508
:1049E0002E20FF3021541E0A013026543020FF3083
:1049F0002354099B2000FFF7D1FE4B46E35A0633B0
:104A000092225200A3522000FFF7D0FDA0E7C0463B
:104A10003202000010B582B000240194009313000C
:104A20000A000321FFF784FF02B010BD10B582B069
:104A300000240194009313000A000421FFF778FF7B
:104A400002B010BD00B583B00193012300931300A1
:104A50000A000621FFF76CFF03B000BDF8B50400A3
:104A6000006803000A3B012B04D92068C82800D144
:104A700094E1F8BDFCF708FBCA23DB00C5582A788F
:104A8000C44BC35C9A4202D00823A371F1E76A7851
:104A90002E23FF33E35C9A420AD00822A2716A787F
:104AA00080339A42E5D10923A371AB78E371E0E743
:104AB000102B00D936E19B00B74AD3589F46AE78F9
:104AC00098235B00E05C00023223FF33E35CC018F4
:104AD00080B2FEF7DBF8864202D00823A371C8E754
:104AE000AE7803363100280000F07EFDAB5DC1B228
:104AF000AD196A78000AC0B25B1A591E8B41101AB0
:104B0000421E9041034300D10CE10723A371B0E79B
:104B1000AE7898235B00E05C00023223FF33E35C55
:104B2000C01880B2FEF7B2F8864202D00823A37103
:104B30009FE7AE7803363100280000F055FDAB5DED
:104B4000C1B2AD196A78000AC0B25B1A591E8B4116
:104B5000101A421E9041034300D1E3E00723A371E2
:104B600087E7AE783222FF32A25C5200964202D032
:104B70000823A3717DE703363100280000F034FDDF
:104B8000AA5DC7B2AD196978000AC0B2D31B5A1E1C
:104B90009341081A421E9041034300D1C2E007230B
:104BA000A37166E7AE783222FF32A25C52009642D1
:104BB00002D00823A3715CE703363100280000F01F
:104BC00013FDAA5DC7B2AD196978000AC0B2D31B44
:104BD0005A1E9341081A421E9041034300D1A1E09E
:104BE0000723A37145E7AA7897235B00E35C9A4209
:104BF00002D00823A3713CE7EA783023FF33E35C5B
:104C00009A4202D00823A37133E72A7998235B00E4
:104C1000E35C9A4202D00823A3712AE76A7932231F
:104C2000FF33E35C9A4202D00823A37121E70621F7
:104C3000280000F0D9FCAB79C1B2EA79000AC0B211
:104C40005B1A591E8B41101A421E9041034369D0D2
:104C50000723A3710DE7AA7897235B00E35C9A42D0
:104C600002D00823A37104E7EA783023FF33E35C22
:104C70009A4202D00823A371FBE62A7998235B00AD
:104C8000E35C9A4202D00823A371F2E66A793223E8
:104C9000FF33E35C9A4202D00823A371E9E60621C0
:104CA000280000F0A1FCAB79C1B2EA79000AC0B2D9
:104CB0005B1A591E8B41101A421E9041034331D09A
:104CC0000723A371D5E6AA7897235B00E35C9A4299
:104CD00008D0EA783023FF33E35C9A4202D00823FD
:104CE000A371C6E62A7998235B00E35C9A4208D058
:104CF0006A793223FF33E35C9A4202D00823A3711E
:104D0000B7E60621280000F06FFCAB79C1B2EA7962
:104D1000000AC0B25B1A591E8B41101A421E904104
:104D2000034302D10423A3719FE60723A371A0E6E6
:104D3000AA7897235B00E35C9A4208D0EA78302394
:104D4000FF33E35C9A4202D00823A37191E62A79EB
:104D500098235B00E35C9A4208D06A793223FF33E0
:104D6000E35C9A4202D00823A37182E60621280060
:104D700000F03AFCAB79C1B2EA79000AC0B25B1A22
:104D8000591E8B41101A421E90410343CAD007237B
:104D9000A3716EE6340400009CB90000FCF774F9BE
:104DA000FCF7A0FF4568297890235B00E35A1A0AB4
:104DB000914203D16A78DBB29A4202D00823A371F0
:104DC00057E6A97891235B00E35A1A0A914203D16E
:104DD000EA78DBB29A4202D00823A37149E62B7924
:104DE0001B026A799B189BB20268063A934202D072
:104DF0000823A3713DE6AA7996235B00E35C9A42FF
:104E000002D00823A37134E6EA792E23FF33E35C52
:104E10009A420BD00822A271EA7980339A4200D0DC
:104E200027E60923A3712B7AE37122E6102B00D920
:104E3000C1E09B00614AD3589F462D7A98235B00BE
:104E4000E05C00023223FF33E35CC01880B2FDF760
:104E50001DFF854200D1AEE00823A37109E62D7A3B
:104E600098235B00E05C00023223FF33E35CC01850
:104E700080B2FDF70BFF854200D19CE00823A371AF
:104E8000F7E52A7A3223FF33E35C5B009A4200D1D4
:104E900091E00823A371ECE52A7A3223FF33E35C27
:104EA0005B009A4200D186E00823A371E1E52A7AEB
:104EB00097235B00E35C9A4202D00823A371D8E5F4
:104EC0006A7A3023FF33E35C9A4202D00823A3714D
:104ED000CFE5AA7A98235B00E35C9A4202D00823CC
:104EE000A371C6E5EA7A3223FF33E35C9A4262D0CB
:104EF0000823A371BDE52A7A97235B00E35C9A42FD
:104F000002D00823A371B4E56A7A3023FF33E35C4F
:104F10009A4202D00823A371ABE5AA7A98235B00DA
:104F2000E35C9A4202D00823A371A2E5EA7A322315
:104F3000FF33E35C9A423ED00823A37199E52A7AB5
:104F400097235B00E35C9A4208D06A7A3023FF33F0
:104F5000E35C9A4202D00823A3718AE5AA7A9823D7
:104F60005B00E35C9A4226D0EA7A3223FF33E35CAB
:104F70009A4220D00823A3717BE52A7A97235B000D
:104F8000E35C9A4208D06A7A3023FF33E35C9A42AA
:104F900002D00823A3716CE5AA7A98235B00E35C36
:104FA0009A4208D0EA7A3223FF33E35C9A4202D075
:104FB0000823A3715DE50423A3715AE5E0B900005D
:104FC000F8B5040003681A000A3A012A02D9C82B6E
:104FD00000D0F8BD637D042B23D00126033BDBB258
:104FE000012BF6D80025A37D5B08AB42F1D99623AF
:104FF0005B00E75C20002F30FF30FDF782FE401998
:1050000083B2320039002000FFF797FB07006800E9
:10501000113020180630FDF774FE38800135ADB22E
:10502000E1E70226DAE7F8B50400006803000A3B6E
:10503000012B04D92368C82B00D1B3E0F8BDFCF7DD
:1050400023F8060092239B00E7581D3BFF3BE15CE1
:105050002000FFF771FA0500A379022B0FD004237B
:10506000EA6993429B415B422122AB542000FFF747
:105070005DF92000FFF752F90023A371DAE7CA2394
:10508000DB00F65880239B00F35A002B11D13B68BC
:1050900001333B6003690133036120230022C254C2
:1050A000C369002BDBD0022B00D20223023BEB6151
:1050B000D5E7042B05D9327896235B00E35C9A424E
:1050C00013D08F229200A3580133A3506B69013390
:1050D0006B6120230022EA54EB69002BBFD0022B26
:1050E00000D20223023BEB61B9E78E229200A35863
:1050F0000133A3508368013383600323A37100232A
:10510000E3712000FFF7AAFCA379042B10D08F22B3
:105110009200A3580133A350AB690133AB61EB6933
:10512000002B9CD0022B00D20223023BEB6196E7BE
:105130002000FBF7A7FC20230122EA5490229200D2
:10514000A3580133A350EB680133EB603378237528
:10515000737863758027BF00F25B043AB11C2000AE
:10516000163005F0ADFAF35B043B8E225200A352D9
:10517000F35B9A1EB15C0A02002905D1013BF35C86
:10518000002B02D0012200E001228D235B00E252BD
:105190002000FFF715FFEB69092B00D95FE701330A
:1051A000EB615CE78133FF33E7581D3BFF3BE15C7C
:1051B0002000FFF7C1F90500FCF794FD0600A37974
:1051C000022B0FD00423EA6993429B415B422122C8
:1051D000AB542000FFF7AAF82000FFF79FF8002348
:1051E000A3712BE70368002B11D13B6801333B60AF
:1051F0002B6901332B6120230022EA54EB69002B39
:10520000E0D0022B00D20223023BEB61DAE7042B51
:1052100006D943689A7996235B00E35C9A4213D0DF
:105220008F229200A3580133A3506B6901336B6145
:1052300020230022EA54EB69002BC3D0022B00D2BA
:105240000223023BEB61BDE78E229200A35801339B
:10525000A350AB680133AB600323A3710023E37158
:105260002000FFF7FBFBA379042B10D08F229200C4
:10527000A3580133A350AB690133AB61EB69002B39
:10528000A0D0022B00D20223023BEB619AE71C3331
:105290000122EA5490229200A3580133A350EB68F4
:1052A0000133EB6073681B781B022289134323814F
:1052B000726852781343238173689B781B0262895A
:1052C000134363817268D2781343638173681B79D7
:1052D0001B02A2891343A381726852791343A381ED
:1052E00073689B7923757368DB796375716808311E
:1052F0003268083A2000163005F0E2F93368083BBE
:105300008E225200A3522000FFF75AFEEB69092BB0
:1053100000D957E70133EB6154E7000010B54300B3
:105320001B185B00094AD3185B79012B00D010BD14
:10533000140043001A185200A2180121117151885B
:1053400018184000005DFDF7EFFDF0E72004002095
:1053500010B543001B185B00094AD3185B79012B79
:1053600000D010BD140043001A185200A2180021EA
:105370001171518818184000005DFDF7E3FDF0E75A
:105380002004002070B584B004000800072C23D846
:1053900063001B195B001249CB185B79012B1DD0F0
:1053A0000D0061000B195B00EB185A8009194900C8
:1053B000485500261E7101255D7111000395029666
:1053C0000195009500230122FDF704FD2000FFF761
:1053D000BFFF002004B070BD0220FBE70420F9E706
:1053E0002004002010B543001B185B00094AD318A5
:1053F0005B79012B00D010BD43001B185B00D31854
:105400001B79002B02D1FFF789FFF4E7FFF7A0FF1C
:10541000F1E7C0462004002010B50022032A1CDC5E
:1054200053009B185B019B1A19010D4B5B180D492A
:105430008C4663441B78002B01D00132EEE7084C08
:1054400053009B185B01981A010161186144012007
:1054500008709A1A1001001900E0002010BDC04623
:10546000EC131020EC05000010B500F015FE012132
:10547000202001F0BFFA042001F042FA01F0C3FB42
:10548000002800D1FEE7C0200021800500F00EFEBC
:10549000002000F01BFE80200121400400F020FECF
:1054A00010BD00000300C83B1B010248C0180430B7
:1054B0007047C0462801002070B59EB0C83804006F
:1054C00000220CE053009B185B019B1A1B01224930
:1054D000CB1822498C466344002119700132032AFB
:1054E000F0DDFFF7C1FF1E4D2601705900F062FF8D
:1054F000684600F011FE0E23019380235B010793A1
:1055000001236A461376D375563300226946CA547E
:10551000A9190A31063216A805F0D2F8002105298A
:105520000ADC0522521A20010D4B1B189A18127919
:105530005B189A720131F2E780235B010393084DF7
:1055400024016946605900F045FE6059012100F0D0
:10555000D5FD1EB070BDC046EC131020EC05000058
:105560002801002010B5C8380001024BC05800F0D7
:10557000F7FE10BD2801002010B5C024A4052000AE
:1055800000F001FF228D92B2A38D9BB29A4200D10E
:1055900010BDFFF741FF041E14D0C020210080057C
:1055A00000F07EFF82B2BD23DB00E250084B9C423C
:1055B000EED0030E820107D45B07E9D52000FDF78A
:1055C00081F8E5E7024CE8E72000FCF71FFBDFE786
:1055D000FC0D102010B50121082001F00BFA382035
:1055E00000F054FD10BD000010B5020008484C1E2C
:1055F00000290BD0010AFF230340107843405B00D1
:105600000448185A484021000132F0E710BDC04656
:10561000FFFF000024BA000010B5020000204C1E5D
:1056200000290BD0010AFF230340107843405B00A0
:105630000348185A484021000132F0E710BDC04627
:1056400024BA0000152801D00248704701483830BC
:10565000FBE7C0463C01002010B50C00FFF7F2FF4D
:10566000048510BD70B50C0015001E00FFF7EAFFA1
:10567000C673858184720023C374837401330374F9
:1056800083730233437470BD70B50C0015001E00A7
:10569000FFF7D8FF4676C58204750023437703776A
:1056A0008376013303760233C37670BD10B5FFF7FE
:1056B000C9FFC06A012101F09DF910BD70B5FFF767
:1056C000C1FF0400016B406800F014FC606800F04A
:1056D0001FFB3423E35C9B070AD4238D7D2B3DD035
:1056E00029D8322B3CD013D9642B17D14F2515E084
:1056F000E38B208C00041843638CA18C09041943AC
:10570000E28CFDF7DFFB218CA07FFDF70DFCE4E7C9
:105710000A2B27D0142B01D19025FF3536490D8354
:105720003423E25C333B13404B70606800F004FBB1
:105730000023002121E0C8229200934214D005D911
:10574000FA2292009342E9D10725E7E7FA2B0DD020
:105750002D3AFF3A9342E1D10F25DFE73F25DDE700
:105760009F25DBE7254DD9E70925D7E71F25D5E795
:1057700001229A4011430133DBB2132BF8D9C943FC
:105780000122606800F092FB237A1F221A40012355
:1057900093401B4A13600823E356002B15DB9A083D
:1057A000174DC0329200515903200340DB00FC30FA
:1057B000984081434020984003000B435351606858
:1057C00001221D2100F0F4FA70BD0F221A40083AA0
:1057D0009208063292000B498C46624450680321BD
:1057E0000B40DB00FC319940884301004020984089
:1057F00003000B435360E2E7AC0100201F030000ED
:1058000000E100E000ED00E010B5FFF71BFF40688D
:10581000012100F037FB10BD10B5FFF713FF0400A6
:105820004389808900041843E389218A09041943C4
:10583000628AFDF747FB6069A169E269FDF742FBF7
:1058400010BD70B5FFF7FEFE050000240CE001223C
:105850002100686800F0B6FA0121A14001226868C1
:1058600000F01AFB0134A4B2132CF0D970BD70B54E
:1058700082B00C0016001D00FFF7E4FE00960195B3
:1058800040686A46210000F08AFA02B070BD00004C
:10589000F0B585B08C4611001F0000241E4D2E78F7
:1058A000A64207D925011D4BEB5C834202D001348F
:1058B000E4B2F3E7022E2DD8721C174B1A70174B67
:1058C0003601F0549E19634673707180377100235E
:1058D0007371002F04D0012F0FD0002005B0F0BD50
:1058E0000133039300230293022201920093013AB1
:1058F0006046FDF76FFA3800F0E7002303930122BA
:105900000292013201920093013A6046FDF762FA79
:105910000020E3E70220E1E77803002048030020AD
:10592000F8B5DE4657464E464546E0B5002500230D
:105930009A4600269B46984699464EE04342584177
:10594000C2B25AE02101514B5B189968002900D07E
:10595000013920014D4B1B18996021014B4B5B18FD
:105960005B79934213D0494B5B189B68092B0EDD82
:10597000002A57D0454920010A18012353710027F6
:105980009760D760425C93404A461A439146220191
:105990003E4B9B185B79002B1DD013003B4AD2185D
:1059A000D3680133D360132B08DD2201374B9B18DA
:1059B00001229A710022DA6001239A462201334BB8
:1059C0009B189B79002B06D0304BD25C012393406F
:1059D0005A461A4393460135EDB22D4B1B78AB4224
:1059E00036D92C002B01294FFF1879887878FDF7DC
:1059F000B7FA02003B79012BA0D0244B2101C85CEF
:105A0000170087403E435B185B7993429AD01F4B47
:105A10005B189B68092BA0DC08001C49091802339D
:105A20008B609AE72201194B9B1800225A719B79CF
:105A3000002B04D02201154B9B1800229A712301E0
:105A4000124A9A5C0123934042461A4390469EE7CD
:105A5000300000E000BF5346002B0BD14B46002B1B
:105A60000CD14346002B0DD1F0BCBB46B246A94633
:105A7000A046F8BD584600E000BFEFE74846FAF7F9
:105A800089FFEEE74046FAF7BDFFEDE74803002047
:105A9000780300207047704770B5012800D070BDB2
:105AA0000B4B9942FBD10B48002404604460846096
:105AB000094E0A4D3200290002F053F808480460EC
:105AC000446084603200290002F04BF8E7E7C046EA
:105AD000FFFF00007C03002000000020E55A0000CA
