:1000000000800020611B0000870A0000810A0000B8
:1000100000000000000000000000000000000000E0
:10002000000000000000000000000000A51B000010
:100030000000000000000000A51B00007109000086
:10004000A51B0000A51B0000591B0000A51B0000FC
:10005000A51B0000A51B0000BD0700002D08000027
:10006000A51B0000A51B0000A51B0000A51B000090
:100070008D0A0000A51B0000A51B0000D90B000085
:100080009D080000A51B0000A51B0000A51B00008B
:10009000A51B0000A51B0000A51B0000A51B000060
:1000A000A51B00000000000000000000A51B0000D0
:1000B000A51B0000A51B0000A51B0000A51B000040
:1000C00010B5064C2378002B07D1054B002B02D02E
:1000D000044800E000BF0123237010BD8C01002004
:1000E0000000000064360000044B10B5002B03D064
:1000F0000349044800E000BF10BDC04600000000F6
:100100009001002064360000402292029A1A924622
:100110007047C046174B002B00D1134B9D46FFF78D
:10012000F3FF00218B460F461348144A121A02F0BF
:10013000D6FF0E4B002B00D098470D4B002B00D064
:1001400098470020002104000D000D48002802D02F
:100150000C4800E000BF02F08BFF2000290001F0F6
:100160007FFD02F06FFFC0460000080000000000A5
:1001700000000000008000208C010020001B0020F7
:10018000000000000000000070B500F0BFFD04207A
:1001900001F042F901F0F7F90128FBD1C025AD05C6
:1001A0000021280000F0BCFD002000F0C9FD8020E7
:1001B0000121400400F0CEFD280000F039FF1F4C63
:1001C000200000F0E3FD0E23636001212176E1753C
:1001D00080239B01E36100235722A354184A5679D8
:1001E0003602107930435C26A053D67836029078D8
:1001F00030435A26A0535078000212780243582008
:10020000225280225201E2605022A3540132A154B2
:100210000132A3540132A3540132A3540132A35436
:100220005633E1542100280000F00EFE0121280081
:1002300000F09EFD280000F0CDFE70BD0C090020EE
:100240000400002010B504000E3C144B1860144A42
:1002500091791971D1795971117A9971517AD9714C
:10026000917A1972D27A5A720E4A1178997251782B
:10027000D97291781973D178597311799973527928
:10028000DA73220A1A745C740023A34205D21A009E
:100290000E3205498B540133F7E710BD900700205B
:1002A000A80100200400002094070020F0B583B0CE
:1002B000040000230093028D92B2838D9BB29A4278
:1002C00001D103B0F0BD164D290000F011FF0190DF
:1002D000AB7B1B02E87B18432E7C36026B7C1E43F3
:1002E00000D101360700FFF7ADFF002505E03A0019
:1002F0000C49200000F0CEFF0135AE42E1D92B0AB7
:10030000084A9374D5748021C900200000F075FE5E
:100310000138434243410093009B002BF3D1E6E7B1
:10032000A80100209007002010B50A388200174B62
:10033000D358342242431648801830300278002ABD
:1003400020D09A6A002A0DD0DA690132DA619A6AFD
:1003500080208000135A834216D2D15401331352A5
:10036000002010BD0B4A9A5C002A06D01A002C32DD
:100370009A62094800241454E6E78C2292009A18E5
:100380009A62E1E70920ECE70320EAE7840900200C
:100390000C0000202E020000020200000A38820039
:1003A000074BD258342343430648C01830300378F3
:1003B000002B04D000230449535204315352704798
:1003C000840900200C0000203406000070B50A38B3
:1003D0008200324BD35800292FD1314A9954314BE6
:1003E00034224243D458216B2F4D29402163D458E5
:1003F000256B80218900294321639B181B7C012BDD
:1004000000D070BD34224243264B9B185B7C002BEE
:1004100008D024488018818A89B2807CC0B200F05C
:1004200039FBEEE7342343431E48C018818A89B262
:10043000807CC0B200F03CFBE3E7194A01219954EB
:10044000184B34224243D458216B184D2940216364
:10045000D458256B80214900294321639B181B7CBC
:10046000012BCED1342242430E4B9B185B7C002BD8
:1004700008D00C488018818A89B2807CC0B200F014
:1004800017FBBEE7342343430648C018818A89B26C
:10049000807CC0B200F0FEFAB3E7C04684090020B9
:1004A0004D0600000C000020FFFEFFFFFFFDFFFFD8
:1004B00010B50A388200154BD3581A6A01321A62F5
:1004C00013495A5A013A5A52C722D2009A5AFF2166
:1004D00049008A4215D9C722D20000219952C72269
:1004E000D2009A5A013A9A180A498C466244117805
:1004F0001976117834235843074BC05801F0CBF8D4
:1005000010BD0132C721C9005A52E8E78409002012
:1005100034060000340400000C00002010B50A3836
:100520008000094BC35807290AD8084A9954C722A2
:10053000920094466144490059184988044A9952E6
:10054000022000F0F5F910BD840900204C060000DF
:100550004A06000070B5002401E00134E4B2012C29
:1005600000D99CE02500342262434D4B9B18303368
:100570001B78002BF1D0A3004A4A9B581A68002A26
:100580000FD0494A9A5892070BD547495A5802202A
:1005900082435A50A300434A9B581B6820000A30EC
:1005A0009847AB003F4A9B583F4A9A5852071BD581
:1005B0003D495A58042082435A50AB00394A9B584F
:1005C000996ACA22D200995000229A625A68002A77
:1005D00003D05B6828000A309847AB00314A9A582C
:1005E000CA23DB000021D150AB002E4A9B589A68E9
:1005F000002A0FD02C4A9A5812070BD52A495A586C
:10060000082082435A50AB00264A9B589B6828001A
:100610000A309847AB00234A9B58DA68002A0FD06B
:10062000214A9A58D2060BD51F495A5810208243A6
:100630005A50AB001B4A9B58DB6828000A30984789
:10064000AB00184A9B581A69002A0FD0164A9A58CC
:1006500092060BD514495A58202082435A50AB00B9
:10066000104A9B581B6928000A309847AB000D4A76
:100670009B585A69002A00D16FE70B4A9A585206D4
:1006800000D46AE708495A58402082435A50AA00C9
:10069000044BD3585B6928000A3098475DE770BD6A
:1006A0000C000020840900205406000010B504004E
:1006B00002000A3A91002E4BC95834235A432D4B5D
:1006C0009B1830331B78002B24D02B4BCB5A002B9C
:1006D00020D12A4BCB5C072B1CD89B00284AD3582F
:1006E0009F46264B0022CA54264BCB5A002B11D0D2
:1006F000FFF7DEFE0EE0214B0022CA54224A0223FD
:10070000885803438B5000212000FFF75FFE200034
:10071000FFF744FE10BD194B0022CA541A4A0423A5
:10072000885803438B50F5E7144B0022CA54164AED
:100730000823885803438B50ECE7104B0022CA541F
:10074000114A1023885803438B50E3E70B4B0022D8
:10075000CA540D4A2023885803438B50DAE7074BCD
:100760000022CA54084A4023885803438B50D1E7DB
:10077000840900200C0000204A0600004C060000FE
:10078000A0320000340600005406000010B504003A
:1007900003000A3B9B00074A9A58074BD35C002B87
:1007A00000D010BDFFF7C0FD02212000FFF7B6FE0C
:1007B000F7E7C046840900204D06000010B5164B2F
:1007C0001C68164BDB6BDB060DD4144BDB6B9B06F6
:1007D00003D5134BE35C012B0CD0104A516C114B29
:1007E0000B43536410BD0D4B1968C9B20A20FFF7C3
:1007F000CDFFEAE70C4BE35A002B03D00A20FFF7AA
:1008000057FEEAE7054A536C20210B4353641F3916
:100810000A20FFF783FEE0E7840900200000034080
:100820004D060000CF0700003406000010B5164B3F
:100830005C68164BDB6BDB060DD4144BDB6B9B0645
:1008400003D5134BE35C012B0CD0104A516C114BB8
:100850000B43536410BD0D4B1968C9B20B20FFF751
:1008600095FFEAE70C4BE35A002B03D00B20FFF770
:100870001FFEEAE7054A536C20210B4353641F39DE
:100880000B20FFF74BFEE0E78409002000800340C7
:100890004D060000CF0700003406000070B50024AC
:1008A00000260DE020000A30FFF700FFAD001A4BD4
:1008B000EA581A4BD358002B00D001260134E4B279
:1008C000012C1AD8250034226243154B9B18303373
:1008D0001B78002BF2D0A3000F4A9B58114A9A5C58
:1008E000002AE3D0104A9A5A92B2002ADAD00E496E
:1008F0005A5A013A92B25A52D8E7002E09D10B4BFC
:100900001A68002111601A68536D02318B435365D8
:1009100070BDFFF71FFEF2E78409002054060000B7
:100920000C0000204C0600004A060000C809002008
:1009300010B503010348C0184068012100F0A1FE72
:1009400010BDC0467400002003010248C018406872
:100950007047C04674000020BFF34F8F024B034A1C
:10096000DA60BFF34F8FFEE700ED00E00400FA0508
:10097000064B1B68002B04D0044A1368013B13602C
:100980007047034B00221A60FAE7C0468C0900202A
:1009900010E000E0044B01225242C02149005A50AD
:1009A0000139FF395A50704700E100E010B500F0FE
:1009B0003BFE012000F018FD00F0CCFD0128FBD12A
:1009C0000F21023000F052FD012000F07BFD00F00D
:1009D0003FFE0128FBD180246400200000F08AFD46
:1009E000012000F061FD200000F084FD11200021B5
:1009F000404200F08BFD002000F072FD10BD0000B1
:100A000010B572B6FFF7C6FFFFF7D0FF0121102027
:100A100000F07CFD0121164800F078FDFFF7BAFFD9
:100A200000F000F9022002F033FC000103098020ED
:100A3000400518430F4B1860030E0F4C2370030C36
:100A40006370030AA370E070FF2323716371A371C5
:100A5000E01D1E22094902F039FB2521200000F08B
:100A6000EBF8020A2523E2540133E05410BDC046DE
:100A700000011000EC090020F0090020A400002073
:100A800010B5FFF769FF10B5FFF766FF10B5FFF768
:100A900063FF000010B503004000C0188000034B46
:100AA0001818406800F09CFC10BDC046C40000202F
:100AB00010B503004000C0188000034B18184068B0
:100AC00000F090FC10BDC046C4000020014B642221
:100AD0009A607047180A002030B50D4B1B68002B38
:100AE00012D01869596905E02500154301D020008E
:100AF00011009B69002B09D01C695A699142F3D8F7
:100B0000F7D1A042F5D9EFE70020002130BDC04663
:100B1000180A0020D0B52D4B1B68002B05D02C4B9C
:100B20001C681B69002B50D020E00120FFF70CFF50
:100B3000264B1860F3E7264909690E000027921B2F
:100B4000BB41226163612369626913430BD162B6C1
:100B500072B62368984723696269134303D1A26878
:100B6000E36822616361A469002C19D0237F002B04
:100B7000F9D0174B1B7BDBB2627F1341DB07F2D549
:100B800022696369124908690021002BD3D18B4285
:100B900001D18242CFD80022002322616361D2E7D3
:100BA0000B4B00221A61FFF797FF002908D103D1F0
:100BB00080235B02984203D2014302D10A2000E065
:100BC0000448024B1B68986062B6D0BD90090020B3
:100BD000180A0020FFFF000010B5104B1B68002B07
:100BE00011D00E4B1B685A6D03218A435A659A68CF
:100BF0000B4B1A6119699A68002A0ADB084A936844
:100C00005B1A936010BD0120FFF79EFE034B186036
:100C1000E7E7FFF77FFFFFF759FFF3E794090020AD
:100C2000180A002010B50121082000F06FFC3820C0
:100C300000F066F810BD000010B5020000204C1E48
:100C400000290BD0010AFF230340107843405B00CA
:100C50000348185A484021000132F0E710BDC04651
:100C6000C032000070B5012800D070BD0B4B994216
:100C7000FBD10B480024046044608460094E0A4D97
:100C80003200290000F0F9FF0848046044608460E5
:100C90003200290000F0F1FFE7E7C046FFFF000047
:100CA0009809002000000020B10C0000A4090020D9
:100CB00010B504000068002801D001F057F82000AA
:100CC00010BD000010B502490120FFF7CBFF10BD99
:100CD000FFFF0000012904D001238340034AD362AF
:100CE000704701238340014A9362F9E70080024084
:100CF00001238340014A53617047C046008002408F
:100D0000014B18607047C04600800140024A536B97
:100D100002490B40536370470000024000FF008609
:100D200010B5054A536B054C2340084318438021F6
:100D300009050843506310BD00000240FFFF00CFCB
:100D4000034A536BFF218B43034353637047C046F1
:100D500000000240012904D0044A536B83435363CB
:100D60007047024A536B18435063F9E70000024092
:100D7000012904D0838E0122934383867047838E9A
:100D8000012213439BB28386F8E700001C23036013
:100D90000E3B43600023836080221201C260036126
:100DA0000122027542758375C37503764276C3616D
:100DB0002021435401314354013143540131435400
:100DC0005D31416258394354C3620363D831416392
:100DD000C839425401314254013142540131425424
:100DE0003139C1633631435443648364A021C9005F
:100DF000C164502143540131435401314354013102
:100E000042540131435401314354013142540131C0
:100E1000425457320A49815202320A4981520232FF
:100E200012218152436680231B050366602383667B
:100E30002F3BC36633330367603B43677047C0464D
:100E4000AB7800005634000010B58B8903800B6826
:100E5000DB024A6813438A681343828E13439BB2B2
:100E600083860B7D5B039BB20A6913439BB24A7D69
:100E7000120392B213438A7D92001343CA7D52003B
:100E800013430A7E1343C3834B7E9B039BB2CA6901
:100E900013439BB220228A5CD20292B213432122D6
:100EA0008A5C920292B2134322228A5C520292B26C
:100EB000134323228A5C120213438A8C13438383D5
:100EC0002823CB5CDB03CA6A13430A6B13434A6BC8
:100ED000134338228A5CD201134339228A5C92017F
:100EE00013433A228A5C520113433B228A5C12016B
:100EF0001343CA6B13439BB243834023CB5CDB0396
:100F00004A6C13438A6C1343CA6C1A435123CB5C5B
:100F10009B0152240C5DA401234353240C5D640007
:100F2000234354240C5D2401234355240C5D6401A8
:100F3000234356240C5DA400234357240C5D234314
:100F400050240C5DE400234313439BB203835823D6
:100F5000CB5A43805A23CB5A83805C23CB5AC3801D
:100F60004B6E9BB203814B6E1B0C43810B6E9BB28D
:100F700083810B6E1B0CC3818B6E9BB20382CB6E85
:100F80009BB243820B6F9BB283824B6F9BB2C38237
:100F900010BD0000012904D0438B5B045B0C43832C
:100FA0007047438B024A13439BB24383F8E7C04622
:100FB0000080FFFF012904D0038B5B045B0C0383DB
:100FC0007047038B024A13439BB20383F8E7C04682
:100FD0000080FFFF10B50400838E012213439BB2F3
:100FE0008386C38B03229343C3830121FFF7D2FF80
:100FF00001212000FFF7DEFF10BD038E0B4201D060
:10100000012070470020FCE7C38E0B4201D0012075
:1010100070470020FCE710B50400838E0122934343
:10102000838610212000FFF7EFFF0128F9D110BDC2
:1010300010B50400FFF7EFFF802212012280124B4F
:101040006380124BA3801223E380002323816381FA
:10105000A3810F49E181602121822F3961823331DF
:10106000A1826039E1820B492183FD21490061831E
:101070008121C901A183C0218901E1832384638483
:101080002385628510BDC046AB7800005634000051
:101090000080FFFF0705000070B5124CA56B802390
:1010A000DB012B43A363104BE0241A5101398A0062
:1010B0001218E4201A5009010C4A1143E8229950F1
:1010C0000121D638FFF706FE0E20FFF711FE064A73
:1010D000E823D3589B07FAD100210E20FFF7FAFD31
:1010E00070BDC0460080024000041020028002AEA5
:1010F000F8B5CE46474680B502000800938BC02164
:1011000089010B40802149018B424BD0802189010C
:101110008B4200D182E0002B04D02000C0BCB94635
:10112000B046F8BD158D80231B0598469044434674
:10113000EB1810CBA1B2033189108C4617887F1BA6
:101140008900791A8946002901DD002105E0002681
:101150000DE08D0040CB465101316145F9D3DB04F0
:10116000DB0C1385D9E7B50002CB41510136BD0830
:10117000013DB542F7D843464946494288460027D3
:1011800004E0F519AD0002CB415101374146CD17BE
:10119000AC46032561460D404544AD100135BD42C6
:1011A000EFD8DCE7178D80231B05D618BB1910CBB1
:1011B000A1B28C46032121404D1EA9416546AD08D0
:1011C00049191288D21B8D00551BAC46002D01DD3C
:1011D000002205E000210AE0950040CB4651013293
:1011E0008A42F9D399E78D0080CB475101319508A8
:1011F000013D8D42F7D8320063465E42002504E08F
:101200004B199B0080CAC7500135F71703233B4099
:101210009B199B100133AB42F2D87EE780231B055C
:101220009C4662441468A3B2032121404D1EA9418B
:101230009B08C918FFF730FF6FE7000070B5124D2B
:10124000AB6B802424021C43AC6301398B009A18D9
:101250000E4BF0241A51F422985009010C4A114304
:10126000F822995001210F20FFF734FD0F20FFF7DE
:101270003FFD064AF823D3589B07FAD100210F20DF
:10128000FFF728FD70BDC04600800240000410201A
:10129000028002EAF0B5D6464F464646C0B582B057
:1012A000D41CA408A31C9A46438D9BB2C58DADB235
:1012B000878BBC46C027BF0166463740B9468026AB
:1012C000B601B74221D0E026B605B0469844AB42FD
:1012D00022D2ED1AAD08009500250195009DAC467F
:1012E000019D654455456DD36546002D1ED046468B
:1012F00004C66246013A009204339846631C9C4639
:10130000009DAB422CD9002230E00A005146324801
:10131000FFF794FF012056E08026B601F61AB608C2
:1013200000960688AD1BAD080195D7E70688E02337
:101330009B05F51803882A60274A944666440433BF
:101340009846DBE79A008D58B5500133A342F9D394
:101350009B00F31800221A6063469A00424421E081
:101360000023F3E79300CF58F75001329542F9D8A4
:101370000688E0239B059C4666440023621B9A4234
:1013800008D99A009446EA18920067465258F251DA
:101390000133F3E7018892008A189B00F3180021BB
:1013A000196004324B46002B13D180239B019A42D3
:1013B00004D3038809498C466344D21892B242850B
:1013C000012000E0002002B0E0BCBA46B146A846C9
:1013D000F0BD0120F7E7C0460400003800E0FFFF41
:1013E00001627047416270470A4A936803218B4348
:1013F0009360012802D0022806D07047054A9368FE
:1014000001210B439360F8E7024A936803210B43E1
:101410009360F2E7000002400A4A93680C218B4374
:101420009360042802D0082806D07047054A9368C4
:1014300004210B439360F8E7024A93680C210B43A5
:101440009360F2E700000240064BDB6B002805D0FA
:101450008022D2031343034AD3637047024A1340E6
:10146000F9E7C04600800D40FFFFBFFF10B50C4BF1
:10147000DA680324A2430243DA605A68094802404A
:101480000902114359605B685B0707D5044A53683A
:1014900008211800084350608B43536010BDC046BC
:1014A00000000240FFF0FFFF054BDB68002804D07E
:1014B00004221343024AD360704704229343F9E79E
:1014C00000000240054B5B68012804D004229343CE
:1014D000024A5360704704221343F9E700000240B8
:1014E000034AD368F0218B4300011843D060704752
:1014F00000000240034AD36803490B400343D36012
:101500007047C04600000240FFFCFFFF002904D0E6
:10151000044AD3691843D0617047024AD3698343B0
:10152000D361F9E700000240E0230340202B08D0FC
:10153000064BDB6B1F221040C340DB0704D50120A4
:101540007047034B1B68F5E70020F9E700800D406A
:101550000000024000B583B0002301932220FFF772
:10156000E3FF019B01330193019AC023DB009A4200
:1015700001D20028F2D02220FFF7D6FF002800D0A9
:10158000012003B000BD00B583B0002301932320E8
:10159000FFF7CAFF019B01330193019A80231B02CD
:1015A0009A4201D20028F2D02320FFF7BDFF002885
:1015B00000D0012003B000BD00B583B0002301932B
:1015C0001720FFF7B1FF019B01330193019AC0235C
:1015D000DB009A4201D20028F2D01720FFF7A4FFC7
:1015E000002800D0012003B000BD000010B501208C
:1015F000FFF72AFFFFF7E0FF0020FFF77BFF084B14
:10160000DA680022DA6059685A6099689A60196944
:101610001A6159695A6199699A61024ADA6110BD81
:10162000000002401000000810B5FFF7DFFF802027
:1016300001210005FFF76AFF044BD96B8120C0032D
:101640000143D963DA6B0240DA6310BD00800D40BC
:1016500000B583B0002301932120FFF765FF019BB4
:1016600001330193019AC023DB009A4201D2002882
:10167000F2D02120FFF758FF002800D0012003B04E
:1016800000BDC368002903D001221343C360704723
:1016900001229343FAE7FF230B40036070470000E9
:1016A00010300001014BC0587047C0460000014097
:1016B00010B5054A1030000184580B041B0C23435D
:1016C000090C8B43835010BD000001401030000115
:1016D000024B9C46604440687047C0460000014091
:1016E0000001024B9C4660440068704708010140BD
:1016F000024AA4235B00D0587047C0460000014056
:10170000024AA4235B00D0507047C046000001404D
:10171000024AA8235B00D0507047C0460000014039
:101720000330C001014BC0587047C0460000014063
:10173000C001024B9C466044006870478C01014028
:10174000C001024B9C46604401607047900101401B
:10175000C001024B9C46604401607047C0010140DB
:10176000C001024B9C46604401607047D0010140BB
:10177000034A10300001835804214B4083507047C6
:101780000000014070B505000E002C244443064BB8
:10179000E4181F20FFF7B4FF002323763100280050
:1017A000FFF786FF70BDC046401A0020F8B506005E
:1017B0000C002C254543134BED180121FFF7D0FFFA
:1017C000012C09D0022C0BD0EC682B69E318AF6810
:1017D0009F4210D91F000EE03000FFF7C9FFF3E76A
:1017E00004213000FFF764FFEEE76B68195D3000FD
:1017F000FFF7AEFF0134BC42F7D302213000FFF700
:10180000C1FFF8BD401A002010B52C2343430A4AFB
:101810009B180A4A9969114208D001221A70084996
:1018200000225A70FFF7AEFF002010BD00221A7090
:1018300080210903F4E7C046401A002000FFFF00A2
:101840000200080010B52C2343430B4A9B180129C2
:101850000CD0012902D09A7E002A0BD059700522A3
:101860001A700A21FFF78EFF002010BD0028F0D16A
:101870000120FAE70021F5E7401A0020F0B5DE4626
:1018800057464E46C0B582B005000E00FFF71EFF5A
:1018900001902800FFF724FF032303409946280006
:1018A000FFF7FEFE07002C246C43864BE418F30779
:1018B00001D501232376002600239A467BE0BB074F
:1018C00075D4237E002B72D04B46022B09D04B4699
:1018D000002B0FD1A37E002B0CD004232370924643
:1018E00069E0637E002BF2D003232370002363762C
:1018F000924660E000212800FFF7A4FF012656E091
:10190000BB0705D4237E002B02D04B46012B19D0F8
:1019100001990B074BD000232370A36A9B46002B31
:1019200004D03B004A462800D8470600002E30D19C
:101930002378002B3BD10233237000212800FFF7CE
:1019400035FF34E0019B5B06E2D52369E2689446EB
:101950006344E360A268934216D900232370E369CD
:10196000002B03D06168280098470600002E06D19E
:101970002378002B1BD12800FFF746FF17E000213A
:101980002800FFF75FFF12E001212800FFF70EFF9C
:101990000DE000212800FFF755FF08E002231A00A0
:1019A0003A4093463B4202D1237E002B0AD1534654
:1019B000002B00D17FE02278052AF8D89300424915
:1019C000CB589F462800FFF7B3FE070009E0280028
:1019D000FFF7A6FEE3685B446268D05401239C468F
:1019E000E344BB45F3D301212800FFF7A9FEE368D8
:1019F000FA18E260A3689A4216D300232370236A80
:101A0000002B03D06168280098470600002E06D1FD
:101A10002378002B4FD12800FFF7F6FE4BE0002182
:101A20002800FFF70FFF46E002212800FFF7AAFE7B
:101A300041E0237E002B3ED02800FFF779FE07000F
:101A400008281FD10026BE4206D22800FFF768FEF4
:101A5000636998550136F6E701212800FFF770FE0B
:101A600061692800636A9847061E06D12378042B13
:101A700021D12800FFF7C8FE1DE000212800FFF754
:101A8000E1FE18E001212800FFF75AFE002128009E
:101A9000FFF7D8FE01260EE0BB0788D46378012B40
:101AA00003D02800FFF7B0FE81E701212800FFF7EF
:101AB000C9FE7CE70026300002B0E0BCBB46B2465F
:101AC000A946F0BD401A0020C034000010B5054CF6
:101AD0000023A3600020FFF71BFE032323700020D8
:101AE00010BDC0462C1A002070B5184A802304216E
:101AF000D150174B1C68002C02D00026300070BD5E
:101B000001221A60FFF7F4FD0500430701D4002607
:101B10000EE0FFF7DBFF06000020FFF775FE0D4B20
:101B200001221A7604E0E0B22900FFF7A7FE013493
:101B3000032CF8D9212328009843FFF7E1FD044B3B
:101B400000221A60014B04321A60D7E700E100E07E
:101B5000B4090020401A002010B5FFF7C5FF10BDE2
:101B60000A490B4A0B4B00F009F80B490B4A0C4B86
:101B700000F004F800F05EF8FEF7CCFA9B1A03DDE3
:101B8000043BC858D050FBDC704700009037000081
:101B9000000000208C0100201C39000000001020F3
:101BA000480B1020FEE7C0461D4BDB689B071FD586
:101BB0001C491B4BDB68DB0700D54908184BDB6869
:101BC0005B0706D5164B5A68120A0F2313400133E0
:101BD0005943134BDA68120A03231340012B0DD02B
:101BE000022B17D0002B05D00F4B104A1A6004E0CF
:101BF0000F49DEE70C4B0E4A1A607047084BDA6853
:101C00001009130603D5072303400133D940064BBF
:101C10001960F2E7044B802212021A60EDE7C04619
:101C2000000002400024F40010010020409C00004D
:101C300000127A0010B5084B084ADA61DA6800220F
:101C4000DA6059685A6099689A6019691A61596925
:101C50005A61FFF7A9FF10BD000002401000000804
:101C600010B5FEF797FEFEF7CBFEFEF78DFA62B6D3
:101C7000C0208005FEF71AFBFAE7030010B5080044
:101C8000190001F0D1F910BD7FB500246B461C711D
:101C900010230293036815009E6912686B46009436
:101CA0000394B0476B4606221B79200013409342F1
:101CB00002D1009B01302B6004B070BD009B01205D
:101CC000934200D10530704710B50400034B083330
:101CD000036000F085F9200010BDC0460835000003
:101CE00010B50400FFF7F0FF2000082100F042F8D3
:101CF000200010BDF8B514001E00089A069B0500D0
:101D0000099F934207D1079900F06DF9002802D08E
:101D10007C710020F8BD3100280000F064F9002833
:101D2000F7D0069B3C713B600123BB71F1E770B5B6
:101D300015001C0000F057F9002804D00823E360C8
:101D4000023B2560237170BDF8B505000C0016003C
:101D50001F0000F048F9002807D1032F05D8236899
:101D60003200290020005B699847F8BD10B501F0EA
:101D7000A3F910BD10B5FFF7F9FF10BD02780300FD
:101D80000020472A16D15A784E2A13D19A78552A1C
:101D900010D1DA78432A0DD11A79432A0AD15A7917
:101DA0002B2A07D19A792B2A04D1DB792A3A9A4235
:101DB0004041C0B270470000F0B585B00193037890
:101DC00004000E00C779472B13D143784E2B10D156
:101DD0008378552B0DD1C378432B0AD10379462B39
:101DE00007D143794F2B04D18379522B01D1002F96
:101DF00035D02000FFF7C2FF012358400023C0B2B6
:101E00000022194D039293420FD1184D90420CD1EC
:101E10002200203A1300012F01D11368783B1D687E
:101E20005834012F00D1146803942B6828009B6854
:101E300098470124002803D0039B24191B680393AF
:101E4000336829001F693000012303AAB84700281E
:101E500008D0019B039A1A60200005B0F0BD012351
:101E60003800CDE70400F7E7343500003C350000CA
:101E700070B5060000F018F8350004003000203D71
:101E8000FFF77CFF002809D0EB690133EB61012BE0
:101E900002D1A368AB61A560012070BDA368002BCF
:101EA000F9D000F009F8000000487047B809002098
:101EB00010B5804701F0B0F8024B10B51868FFF775
:101EC000F7FFC0461801002010B58047FFF7F4FF68
:101ED000024B10B51868FFF7F7FFC0461401002049
:101EE00010B50400034B08330360FFF7EDFE20003C
:101EF00010BDC046BC35000010B50400FFF7F0FF70
:101F000020000C21FFF736FF200010BDF7B51D00A3
:101F1000089B04000F001600934209D0A068089A9D
:101F2000036800921C6A32002B003900A047FEBDF6
:101F3000290000F058F80028F0D00620F7E7F0B5A7
:101F40000D0087B01900059307000F9E049200F062
:101F50004AF80C9B041E16D03360049B3371002D8D
:101F60000BDB0C9B0E9A5D190623AA4200D0053BA1
:101F70000024B371200007B0F0BD0024AB1CF9D1E0
:101F80000123B371F6E70E9A934208D138000D99F8
:101F900000F029F8002802D0049B7371EAE70E9A3A
:101FA000B8682900036802920D9A039601920C9A70
:101FB0000092DC69049A059BA0470400DAE7F8B5B3
:101FC00007000C0015001E00FFF7B1FE002806D127
:101FD000B8682A00036821009F693300B847F8BD3C
:101FE000704700207047012310B581420FD0406830
:101FF000002302782A2A0AD049680B782A3B5A42E1
:102000005341C91801F008F943424341DBB21800BB
:1020100010BD027803000020472A16D15A784E2AB4
:1020200013D19A78552A10D1DA78432A0DD11A792A
:10203000432A0AD15A792B2A07D19A792B2A04D11B
:10204000DB792A3A9A424041C0B2704770B5050028
:10205000FFF7DFFF0126041E03D02B000026203BE4
:102060009C68280000F024F8002E01D0FFF730FF14
:102070002000FFF729FF027803000020472A16D12D
:102080005A784E2A13D19A78552A10D1DA78432AF1
:102090000DD11A79432A0AD15A792B2A07D19A7974
:1020A0002B2A04D1DB792A3A9A424041C0B27047C8
:1020B000F8B50500FFF7F8FE2E00040007682800B9
:1020C000203EFFF7D8FF002806D1002F01D0FFF7F0
:1020D000F3FE26603800F8BD7269531C002A01DA4D
:1020E00001239B1A73616368013B6360B74201D0AF
:1020F0003761266028006F6A00F0D0F9EAE7000037
:1021000003685A0004D5802212061343C018704792
:102110005B005B08FAE7C046F8B557464546DE4621
:102120004E469046E0B50700002924D04B1E9A4643
:10213000994600239B465B464B44DC0FE418641031
:10214000E5007E193000FFF7DBFFA2450CD04045CB
:102150000CD8280008303818FFF7D2FF0138404566
:102160000AD2631C9B46E6E7404505D9A34502D049
:10217000631E9946DFE700263000F0BCBB46B2463E
:10218000A946A046F8BDC0460300012805D0022894
:1021900007D00020002B02D070470348FCE703481B
:1021A000FAE70348F8E7C046B1280000A528000078
:1021B000BD28000030B5234B050083B08C1E002BDA
:1021C00026D0200001A900E000BF00281CD0019902
:1021D0002200FFF7A1FF041E16D0FFF791FF6368EE
:1021E000A864012B2AD0201D002B23DBFFF788FFDA
:1021F0000023E8642B650368002B0FDBFFF780FFEB
:102200002861002003B030BD002309202B61F9E7CD
:102210000D480E49091AC9100191D9E71801000F9C
:10222000FFF7B2FF2861431E9841082340429843BC
:102230000930E7E70123E8642B65DCE7002305208C
:102240002B61DFE7000000009836000090370000A7
:10225000036810B50400DA0705D49B070AD5483097
:1022600000F08AFC23685A070AD51A070FD5DB0647
:1022700015D510BD483000F07BFC23685A07F4D414
:102280002000D03000F07CFC23681A07EFD4200037
:102290005130FF3000F078FC2368DB06E9D42000E1
:1022A000D130FF3000F074FCE3E7C0460300006863
:1022B000002800D0C0187047092070477047C046FA
:1022C00070B504000D002000296CFFF773FF002893
:1022D00011D12B6C2A0063612100012023699847EA
:1022E0000828F0D0072806D10020296CFFF7E6FF68
:1022F000281D00F027FC00F08FFEC046F0B5CE464A
:10230000474680B5C368304C9846A54483690400AD
:1023100016000431402205A8994600F0D7FE00239C
:10232000049325E0F022149B5200636104A97CA869
:10233000039300F0CBFE2100280023697CAA984774
:102340008A9B0500039315934B46019304AB0093BE
:102350002200230031000120C047002822D1F022B2
:102360007CA9520004A800F0B1FE0026082D22D15D
:10237000149B200019000393FFF71CFF0936070088
:10238000F5B20028CED0129B1021039315934B4633
:10239000019304AB00932200230001202943C0478E
:1023A000002800D009273800F5239B009D44C0BCBD
:1023B000B946B046F0BD072DF4D130001499FFF7AF
:1023C0007DFF05A800F0BEFB2CFCFFFF406C7047B2
:1023D00070B5CB6BFAB00B6405000E0040220431DF
:1023E00003A800F073FE01235B42029306E029007C
:1023F0002B6902AA9847040008280AD1129B2800DA
:1024000019000193FFF7D6FE0028F0D009207AB01A
:1024100070BD02A8FFF71CFF062CF7D13100280081
:10242000FFF74EFF10B58261DA6BC1601A641900C4
:102430000022FFF763FF10BD436970B50B64C368EA
:1024400004000D00002B13D10A00236901000220B3
:102450009847072805D008280FD129002000FFF74A
:102460002FFF0020296CFFF729FF281D00F06AFBD1
:102470000122FFF743FF00F0CFFD00F0CDFDC04685
:10248000C36810B5002B05D0CB6B00220B64FFF79F
:1024900035FF10BDFFF79CFFFBE7C0467047C04605
:1024A0008368010010B5002B01D00120984710BDB2
:1024B000012915D00AD8002B10D10F2A0ED892006E
:1024C00082185268009B00201A6006E00120033940
:1024D000C9B2884280414042013070470220FCE787
:1024E0000120FAE700B585B003AB0A000093002194
:1024F0000023FFF7DDFF039805B000BD012915D0CB
:102500000AD8002B10D10F2A0ED8009B92001B680E
:1025100082185360002006E001200339C9B28842C6
:1025200080414042013070470220FCE70120FAE779
:1025300000B585B003AB039200930A00002300218D
:10254000FFF7DCFF05B000BD70B51A4CD36BA54496
:10255000136405000C0019A8111D402200F0B6FDFF
:1025600001235B42189314E00C2118A802AAFFF77C
:10257000DFFF210018A8A847002812D1069B18AA3F
:1025800002A9083001939847060005280AD00928B7
:1025900007D0289B02A819000193FFF70BFE002823
:1025A000E2D0092618A8FFF753FE300090239B00C5
:1025B0009D4470BDC0FDFFFFF0B557469246032213
:1025C00045464E46DE4699461300E0B58846CD6C3A
:1025D000494689B00340009308CD0695002900D1F3
:1025E00080E01A0C1B040593022304A90B73FD332E
:1025F00013409B004A73ED18009B022B01D1434608
:102600009D6B43461B6DDB070FD5504605A900F0B7
:1026100065FB002801D1082000E0092009B0F0BCCA
:10262000BB46B246A946A046F0BD2F68002FECD0AD
:1026300008230340029300230193013354469B4631
:102640004646BA464B46022B49D02B886F889A469D
:1026500004355B4638009843B36C0F21984680449C
:102660002000FFF73FFF0023804506D853465A4617
:102670009343434498429B415B4202227F001740B0
:10268000594652460A401743012F30D0022F4CD0F2
:10269000002FC2D1009A002A02D0002B00D09BE06C
:1026A00004352B689A46002BCCD1200005A9A24600
:1026B00000F014FB0028B0D1019B002BABD00F2100
:1026C0005046FFF70FFF0E2102005046FFF730FF84
:1026D00050460F21724AFFF72BFF07209EE76F68D5
:1026E0000835B6E71B02059304AB9A8184E7009A8C
:1026F000002A49D1002B16D02B68DF0F6B689A1C7B
:1027000000D18AE7320058320492013300D1B6E09A
:10271000281DFFF7CBFD3A00010004AB3000FFF7A6
:102720004BFB00286CD10835BBE72A68009957009D
:102730007F0800290DD1002B04D0029B002B72D002
:10274000002F3CD0002A00DA04350137BF00ED1914
:10275000A7E7336A0D2120009846FFF7C3FE8045A6
:1027600001D02A68EEE7B36A9D42FAD10023F362F2
:10277000043333632B1DB76273632B68002B00DABD
:1027800087E001230193E0E70D212000376AFFF77E
:10279000A9FE8742C7D1B36A9D42C4D1B046A246C2
:1027A0002800FFF7ADFC0F2102005046FFF7C0FEE6
:1027B000504642460021FFF7BBFE07202EE7B046F9
:1027C000A2460D215046FFF78DFE4346049A18623B
:1027D0005A6206209D6221E72800FFF791FC04352C
:1027E000A246B56304003000FFF742FB002800D189
:1027F00013E7504622000F21FFF79AFE07200DE74E
:10280000A2460D2104005046FFF76CFEB04633008F
:102810003062022C39D1049A2C33F262736243463F
:1028200006209D62FAE62B1D9A46002398465833EF
:102830009C4621004A46B4445446A9468A463D0077
:1028400003924746E0460EE0434620000493FFF71C
:102850002DFD0022010004AB3000FFF7ADFA013777
:102860000434002804D1AF42EED14D46B046A8E76B
:102870002F004D46039B544699462A6862E70D2176
:102880002000FFF72FFEB04630624346049A5A629A
:10289000C5E7781C8000B046A246281881E7C046EC
:1028A0004D20000010B50023FFF786FE10BDC04686
:1028B00010B50123FFF780FE10BDC04610B50223FE
:1028C000FFF77AFE10BDC046F0B5CE46474680B54C
:1028D000050014001E00C3B0032970D04DD8002994
:1028E00000D174E001296CD1130C14049846240C17
:1028F000012E00D1A8E0052E63D11B19202B60D832
:1029000042460F2A00D8C0E0A146002C00D0D1E0FA
:10291000AA6B20AF002C2ED0002399464346DB0043
:10292000FF180023E400D158F95004339C42FAD137
:102930004B461219002B10D06F464046102800D28B
:1029400010204B46D90000231038C0003818D45846
:10295000C45004339942FAD15218012E00D1CFE06D
:102960004346AA630F2B00D8CCE04B46002B02D085
:10297000684600F005F9002024E0042921D1002B4D
:102980001FD1102A1DD8102203681A4200D0A9E0D6
:1029900020AF380000F0FEF800230120AA6B0100F0
:1029A00099400C4202D040CA99007E500133042B5A
:1029B000F5D13800AA6300F0EBF8002002E0032B09
:1029C0001FD0022043B0C0BCB946B046F0BD002BBA
:1029D000F7D101218846291D00238C461004AA6BDB
:1029E000000C41469940084203D0664680CA9900CF
:1029F00077500133102BF4D10020A304E2D4AA6352
:102A0000E0E71404160C240C3319102BD9D8082233
:102A100003681A426DD120AF380000F0B7F8F60015
:102A2000AB6B002C0AD0F61AE400321F1C19BA183E
:102A30001900096804339950A342F9D13800AB63F7
:102A400000F0A2F80020BDE71B19102BB9D84346AF
:102A50000F2BB6D82B681E4206D0032228009343C2
:102A60002B60483000F086F820AF380000F082F884
:102A70000023AA6B9946002C00D04FE7043238009F
:102A8000AA6300F075F800209CE7102B45D91022AE
:102A900052429146994401222B681A4207D093432F
:102AA0000222280013432B60483000F067F84B46A1
:102AB000002B35D004222B681A4227D143460F2B16
:102AC00003D820AF380000F059F86F46380000F006
:102AD00059F810244346AA6BE41A002C00DC2CE7BA
:102AE00020AF1BE793430360D130FF3000F052F872
:102AF0004EE7934303605130FF3000F047F88AE718
:102B000020AFBBE720A800F037F82EE7280093435A
:102B10002B60D03000F036F8D0E700239946BAE7B2
:102B200043460F2B00D9F3E620AF380000F026F81B
:102B3000AA6B002C00D0EFE6380000F01DF8002052
:102B400040E7C046011C343138C9043B9C461D6037
:102B5000A646011C20313CC990469946A246AB4688
:102B6000011C0831FCC941680068E54600BDC0464B
:102B70007047C0467047C0467047C0467047C04661
:102B80007047C0467047C0467047C0467047C04651
:102B90007047C0467047C04601B401A801B585B072
:102BA000FFB408A841464A4653465C4665463EC0C7
:102BB00001A83EC80F98009000230CB401A9FFF7AC
:102BC00007FC109B12B0184701B401A801B585B0ED
:102BD000FFB408A841464A4653465C4665463EC097
:102BE00001A83EC80F98009000230CB401A9FFF77C
:102BF00023FC109B12B0184701B401A801B585B0A1
:102C0000FFB408A841464A4653465C4665463EC066
:102C100001A83EC80F98009000230CB401A9FFF74B
:102C20002FFC109B12B0184701B401A801B585B064
:102C3000FFB408A841464A4653465C4665463EC036
:102C400001A83EC80F98009000230CB401ABFFF719
:102C5000E9FB109B12B0184701B401A801B585B07B
:102C6000FFB408A841464A4653465C4665463EC006
:102C700001A83EC80F98009000230CB401AAFFF7EA
:102C800063FC109B12B01847027A0300002A0BD194
:102C9000427A002A0FD0013A42724268111D416007
:102CA00003211268017202E0013A02720268100EFA
:102CB00012021A607047B020FCE7C04600B585B02C
:102CC00003AB00930C2200230021FFF7F1FB0398D4
:102CD00005B000BD10B5FFF7F1FF10BDF0B54E46D1
:102CE00045465746DE460023E0B587B003930F33D1
:102CF0009846083B994680231B0305000E009A4620
:102D00003000FFF7C1FF0400B02800D1C1E0030686
:102D100029D5030042469343DBB2802B53D0902B3E
:102D20003DD0A02B6BD0B02B00D17EE0C02B00D1CA
:102D300095E003004A469343DBB2D02B0AD15346B9
:102D4000024001321A43052301212800FFF7BCFD90
:102D50000028D5D00924200007B0F0BCBB46B246FD
:102D6000A946A046F0BDFF23820013401F1D05ABFE
:102D70009B4600930D22002300212800FFF798FBBB
:102D8000630639D4059B9C4667445B4605970093D0
:102D900000230D2200212800FFF7B0FBB0E7833BA2
:102DA00003400D2BD6D005AF0240002300212800A0
:102DB0000097FFF77DFB00230D22002128000097DC
:102DC000FFF79CFB9CE704023000FFF75DFF8027C4
:102DD00020433F02B842BDD004010005020C00238D
:102DE00000212800FFF770FD0028B3D13C4200D13C
:102DF00086E70123039383E7059BDF1BC5E7FF23DA
:102E00004A461B011900824311410A001A40030778
:102E100002D58023DB011A43002300212800FFF79D
:102E200053FD002800D16BE794E7B12845D0B228C4
:102E300000D19FE0B32855D0FC230340B42B00D130
:102E400088E74A465346024001321A4301210123D2
:102E50002800FFF739FD002800D151E77AE7C6289E
:102E60004BD0C7285DD003004A469343DBB2C02B4A
:102E70006CD0C82871D0C92800D06BE73000FFF7AC
:102E800003FFF02302031B031340424602400132BA
:102E900058E7039B0024002B00D05CE705AE0E2210
:102EA000002128000096FFF703FB00230F220021DA
:102EB00028000096FFF722FB4DE73000FFF7E4FE05
:102EC000021E00D146E7030041468B43DBB2002BD4
:102ED00000D03FE700212800FFF7F6FC002800D1D2
:102EE0000EE737E73000FFF7CFFEF02302031B03A6
:102EF0001340424602400132A7E73000FFF7C4FE0C
:102F0000F02302031B0313404246024001321A43DE
:102F1000032303212800FFF7D7FC002800D1EFE6A8
:102F200018E73000FFF7B0FE021E00D112E70300E1
:102F300041468B43DBB2002B00D00BE70421280075
:102F4000FFF7C2FC002800D1DAE603E74346A022DF
:102F50001C40013412032243DAE73000FFF794FEED
:102F6000434602009A43D2B2103218401203013095
:102F70000243E8E605AB00939B460D2200230021A7
:102F80002800FFF795FA3000FFF77EFE03061AD5FA
:102F90007F27B03C059B3840A0409C46604405908C
:102FA00030000734FFF770FE0306F3D481217F233E
:102FB00089008C460340A340059A62449B18059300
:102FC0005B460093E4E60224F0E7C046030000B548
:102FD000DB6C85B05A680800120201921A000832B0
:102FE0006946029203220A73DB794B7301A9FFF74A
:102FF00075FE05B000BDC04610B5FFF76BFE806CD6
:1030000010BDC04610B5FFF765FEC36CD87902301D
:103010008000181810BDC046062010B500F0DCF87E
:10302000012000F025F9000010B504000448130049
:10303000002804D00A000220210000E000BF10BDDB
:1030400000000000084B10B50400002B02D0002146
:1030500000E000BF054B1868836A002B00D098473A
:10306000200000F005F9C046000000000036000016
:1030700070B500260C4D0D4C641BA410A64209D15E
:10308000002600F0F7F80A4D0A4C641BA410A64273
:1030900005D170BDB300EB5898470136EEE7B30099
:1030A000EB5898470136F2E78001002080010020AC
:1030B000800100208801002010B5034B0100186832
:1030C00000F016F810BDC0461C010020002310B50A
:1030D0009A4200D110BDCC5CC4540133F8E7030020
:1030E0008218934200D1704719700133F9E700004C
:1030F00070B50500002910D00C1F2368002B00DAE2
:10310000E418280000F092F81D4A1368002B05D13E
:1031100063601460280000F091F870BDA34208D9E4
:10312000216860188342F3D118685B6841182160F8
:10313000EEE71A005B68002B01D0A342F9D91168B1
:103140005018A0420BD12068091850181160834212
:10315000E0D118685B68411811605360DAE7A0425B
:1031600002D90C232B60D5E721686018834203D174
:1031700018685B684118216063605460CAE7C04604
:10318000C409002070B504000D001F2904D91623BE
:1031900003600120404270BD436C002B04D08A00C4
:1031A0009B181A68002A08D1200000F031F82A0084
:1031B0000100200000F01AF8EDE70020012AEAD013
:1031C000511C03D1162301302360E4E700242800BA
:1031D0001C6090472000DEE710B5034B0100186823
:1031E000FFF7D0FF10BDC0461C010020002370B5C2
:1031F000064D0400080011002B6000F031F8431C5C
:1032000003D12B68002B00D0236070BDF01A002082
:1032100010B500F01DF810BD02780B78002A03D01D
:10322000013001319A42F7D0D01A704710B50248E8
:1032300000F00CF810BDC046F81A002010B5024886
:1032400000F005F810BDC046F81A0020704770471E
:1032500058220120014B40421A607047F01A0020AA
:1032600058220120014B40421A607047F01A00209A
:10327000FEE7C046F8B5C046F8BC08BC9E4670479D
:10328000F8B5C046F8BC08BC9E4670470000000078
:1032900001B40248844601BC604700BF0B00102007
:1032A00014070000F60600001607000028070000BB
:1032B0003A0700004C0700005E070000E20600002D
:1032C0000000C1C081C1400101C3C003800241C2EE
:1032D00001C6C006800741C70005C1C581C44004BE
:1032E00001CCC00C800D41CD000FC1CF81CE400E6E
:1032F000000AC1CA81CB400B01C9C009800841C87E
:1033000001D8C018801941D9001BC1DB81DA401AED
:10331000001EC1DE81DF401F01DDC01D801C41DCBD
:103320000014C1D481D5401501D7C017801641D6ED
:1033300001D2C012801341D30011C1D181D04010FD
:1033400001F0C030803141F10033C1F381F24032ED
:103350000036C1F681F7403701F5C035803441F4BD
:10336000003CC1FC81FD403D01FFC03F803E41FE6D
:1033700001FAC03A803B41FB0039C1F981F840387D
:103380000028C1E881E9402901EBC02B802A41EAED
:1033900001EEC02E802F41EF002DC1ED81EC402CBD
:1033A00001E4C024802541E50027C1E781E64026ED
:1033B0000022C1E281E3402301E1C021802041E0FD
:1033C00001A0C060806141A10063C1A381A24062ED
:1033D0000066C1A681A7406701A5C065806441A4BD
:1033E000006CC1AC81AD406D01AFC06F806E41AE6D
:1033F00001AAC06A806B41AB0069C1A981A840687D
:103400000078C1B881B9407901BBC07B807A41BAEC
:1034100001BEC07E807F41BF007DC1BD81BC407CBC
:1034200001B4C074807541B50077C1B781B64076EC
:103430000072C1B281B3407301B1C071807041B0FC
:103440000050C190819140510193C05380524192EC
:103450000196C056805741970055C19581944054BC
:10346000019CC05C805D419D005FC19F819E405E6C
:10347000005AC19A819B405B0199C059805841987C
:103480000188C04880494189004BC18B818A404AEC
:10349000004EC18E818F404F018DC04D804C418CBC
:1034A0000044C184818540450187C04780464186EC
:1034B0000182C042804341830041C18181804040FC
:1034C000B41A0000BE180000001900009C1900008A
:1034D000321A0000981A0000C4350000E4340000DD
:1034E000E83500004E31305F5F637878616269765D
:1034F0003131375F5F636C6173735F747970655FDF
:10350000696E666F4500000000000000D8340000BE
:10351000C91C0000E11C0000E31F0000E31F0000C5
:10352000491D0000891C00002F1D0000F51C000033
:10353000BD1C0000103500004435000010350000AF
:10354000643500004E31305F5F6378786162697680
:103550003131355F5F666F726365645F756E776981
:103560006E6445004E31305F5F63787861626976E2
:103570003131395F5F666F726569676E5F65786369
:10358000657074696F6E4500C435000094350000A5
:10359000D83400004E31305F5F63787861626976BD
:1035A0003132305F5F73695F636C6173735F74792D
:1035B00070655F696E666F450000000000000000E6
:1035C00088350000E11E0000F91E0000E31F000026
:1035D000E31F0000491D0000891C0000BF1F000000
:1035E0003F1F00000D1F000010350000F0350000E7
:1035F000537439747970655F696E666F00000000FE
:103600002001002000000000000000000000000079
:1036100000000000000000000000000000000000AA
:10362000000000000000000000000000000000009A
:10363000000000000000000000000000000000008A
:10364000000000000000000000000000000000007A
:10365000000000000000000000000000000000006A
:08366000000000000000000062
:1036680074B20181B0AB3080000000008008018195
:10367800B0B0ABF0000000003F020181B0AB308079
:103688000000000080060181B0B0ABF0000000002F
:1036980070CAFF7F01000000E8CAFF7FB0B0AA80AF
:1036A8009CCBFF7F01000000FCCBFF7FB0AB02800A
:1036B80070CCFF7F01000000A0E5FF7FB0B0A880BC
:1036C800B2E5FF7F01000000E4EAFF7FB0A90280B5
:1036D80078EBFF7FB0B0A880CCEBFF7F0100000043
:1036E800D8EBFF7FB0B0AA800CECFF7F74FFFF7FA0
:1036F800D4ECFF7F01000000D0ECFF7FAA3F3980A7
:103708001CEDFF7FB0B0A88028EDFF7FB0B0AA8085
:1037180068EDFF7FB0B0A8807CEDFF7F010000005E
:1037280078EDFF7FB0B0A88080EDFF7F010000003A
:1037380010EEFF7FAA0FB28078EEFF7F30FFFF7F89
:103748005CF1FF7FB0B0A88078F1FF7F2CFFFF7F8E
:10375800ECF3FF7F010000005CF5FF7F008404802C
:103768006CF5FF7FB0B0A8806CF5FF7F18FFFF7F76
:1037780054F8FF7F0084048078F8FF7FB0B0A880F9
:0837880090F8FF7F0100000032
:1037900000000000123456789ABC0000000003407C
:1037A0004000000000C201006000000600000000B0
:1037B00001000002000100010100200001020103DC
:1037C00000000100400001020003000000000000B2
:1037D000008003408000000000C20100600000077C
:1037E00000000100010001000103000105000200CA
:1037F00001030103000005000100010300030000B4
:103800000000000000000000000007400E00000063
:103810000040000001000000008007400F00000091
:1038200000800000020000000000084010000000BE
:1038300000000100495245414C4C5957414E5454E7
:103840004F474F544F424F4F544C4F414445524EB7
:103850004F5700000000000000800A4000002000D8
:103860000100000000000B400000400002000000CA
:1038700000800B40000080000300000000000C40AE
:10388000000000010400000000800C400000000265
:103890000500000000800E40000000202C0A0020DF
:1038A00000127A00B91E000019300000200100202B
:1038B00000000000243600004436000004360000FA
:1038C00000000000000000000000000000000000F8
:1038D00000000000000000000000000000000000E8
:1038E00000000000000000000000000000000000D8
:1038F00000000000000000000000000000000000C8
:1039000000000000000000000000000000000000B7
:0C391000E9000000C50C0000C100000030
:10391C0010B5002100F08EFC10BD10B58000F8230E
:10392C005B029C466044002100F056FC10BDF0B5D3
:10393C00C64600B5070088461A4B1E68002403E0F3
:10394C0043462B600134A4B28023DB009C420CD292
:10395C00A0003518F8235B029C466044002100F05F
:10396C003BFC2860BC42EDD1EAE7F8204002FFF7AF
:10397C00CFFF002409E0A000F8235B029C466044C2
:10398C00002100F0EFFC0134A4B28023DB009C4248
:10399C0005D2A3009A59044B9A42F4D0EBE780BCB1
:1039AC00B846F0BD0C010020FFFF000070B505000B
:1039BC000C008600F8235B029C4666440021300014
:1039CC0000F00AFC2040A04204D021002800FFF7A0
:1039DC00AEFF70BD22000021300000F0C3FCF8E700
:1039EC0000000000000000000000000000000000CB
:1039FC0000000000000000000000000000000000BB
:103A0C0000000000000000000000000000000000AA
:103A1C00000000000000000000000000000000009A
:10411C0082B00190019B002B04D0C046019B013B57
:10412C000193F7E702B0704730B50500124B134A04
:10413C001A611C683822224001241443012917D02B
:10414C00002222430C4B1A605D60E02149001143B0
:10415C001960D968D968D968D86838210A401A60BA
:10416C0000221A6103232B40DB00D840C0B230BDC3
:10417C0080229200E5E7C046008001405155AA8A92
:10418C0030B50500124B134A1A611C6838222240C4
:10419C0001241443012917D0002222430C4B1A602E
:1041AC005D60E021490011431960D968D968D9686C
:1041BC00D86838210A401A6000221A6102232B4069
:1041CC00DB00D84080B230BD80229200E5E7C046CB
:1041DC00008001405155AA8A134B1B68002B02D159
:1041EC00114B01221A60114B114A1A611B683822BB
:1041FC001A4001231343012912D000221A430B4BFE
:10420C001A605860E021490011431960D968D968D7
:10421C00D968D86838210A401A6000221A617047A0
:10422C0080229200EAE7C046B009002000800140DD
:10423C005155AA8AF8B507001F4B204A1A611B6812
:10424C0038241C4001231C43012905D000231C43A6
:10425C00194B1C60002625E080239B00F7E7F3191F
:10426C00154D6B600023AB608823DB0023432B6070
:10427C005120FFF74DFF91239B0123432B601048E6
:10428C00FFF746FF0F4A224081239B0113432B600B
:10429C005120FFF73DFF0C4B1C402C601120FFF709
:1042AC0037FF04360F2EDAD938231C40024B1C6022
:1042BC0000221A61F8BDC046008001405155AA8AFF
:1042CC0001C40900FFFBFFFFBFDBFFFF70B51F4BF5
:1042DC001F4A1A611B6838241C4001231C43022806
:1042EC0005D000231C43194B1C60002624E08023BE
:1042FC009B00F7E7154D6E600023AB60C4231B01D8
:10430C0023432B605120FFF703FFB1239B01234371
:10431C002B601048FFF7FCFE0F4A2240A1239B01A3
:10432C0013432B600D48FFF7F3FE0D4B1C402C6024
:10433C001120FFF7EDFE04360F2EDBD938231C407D
:10434C00024B1C6000221A6170BDC0460080014007
:10435C005155AA8A01C40900FFFBFFFF410600006A
:10436C00BFD3FFFFF0B5C64600B51E4B1E4C1C61FB
:10437C00012933D000231B4C2568382635401D43BA
:10438C0001272B003B4323606060A260174B2B433B
:10439C0023605120FFF7BCFE154B98462B4323603E
:1043AC00A120FFF7B5FE134B2B4323601248FFF7F8
:1043BC00AFFE43462B432360104B2B43236051200D
:1043CC00FFF7A6FE2F4327601120FFF7A1FE354013
:1043DC0025600023236180BCB846F0BD80239B0080
:1043EC00C9E7C046008001405155AA8A411000001F
:1043FC0041300000C130000081020000412000006B
:10440C00F8B505000E0003230340DB009A401700AB
:10441C00FF249C40FFF7E0FE3A004240224042401D
:10442C0031002800FFF79EFFF8BDF8B505000E001F
:10443C0002230340DB009A401700064C9C40FFF718
:10444C00CBFE3A0042402240424031002800FFF7A8
:08445C0089FFF8BDFFFF00001D
:0400000300001B617D
:00000001FF
