:10000000008000205112000095120000951200009F
:1000100000000000000000000000000000000000E0
:100020000000000000000000000000009512000029
:100030000000000000000000951200009512000072
:100040009512000095120000491200009512000060
:100050009512000095120000951200009512000004
:1000600095120000951200009512000095120000F4
:1000700095120000951200009512000095120000E4
:1000800095120000951200009512000095120000D4
:1000900095120000951200009512000095120000C4
:1000A0009512000000000000000000009512000002
:1000B00095120000951200009512000095120000A4
:1000C00010B5064C2378002B07D1054B002B02D02E
:1000D000044800E000BF0123237010BD7800002019
:1000E0000000000014240000044B10B5002B03D0C6
:1000F0000349044800E000BF10BDC04600000000F6
:100100007C00002014240000402292029A1A924699
:100110007047C046174B002B00D1134B9D46FFF78D
:10012000F3FF00218B460F461348144A121A02F0BF
:10013000F2F80E4B002B00D098470D4B002B00D04F
:1001400098470020002104000D000D48002802D02F
:100150000C4800E000BF02F0B1F82000290001F0D7
:10016000F7F802F095F8C046000008000000000013
:10017000000000000080002078000020D80100204E
:10018000000000000000000010B5012000F010FD8C
:1001900000F0B2FD0128FBD10F21023000F038FD44
:1001A000012000F061FD00F0D9FD0028FBD0012105
:1001B000082000F07DFD282000F086F9012000F0E5
:1001C00045FD002000F05EFD8020400000F064FD51
:1001D00010BD000070B500F07DF9042000F000FDB6
:1001E00000F0A3FD0128FBD1C025AD0500212800AA
:1001F00000F07AF9002000F087F980200121400406
:1002000000F08CF9280000F051FA1F4C200000F09B
:10021000A1F90E23636001212176E17580239B0102
:10022000E36100235722A354184A56793602107905
:1002300030435C26A053D6783602907830435A2655
:10024000A053507800021278024358202252802294
:100250005201E2605022A3540132A1540132A3544E
:100260000132A3540132A3540132A3545633E15452
:100270002100280000F067FA0121280000F05CF955
:10028000280000F0E5F970BD940000200000002077
:1002900010B504000E3C144B1860144A9179197182
:1002A000D1795971117A9971517AD971917A1972FA
:1002B000D27A5A720E4A117899725178D97291781D
:1002C0001973D1785973117999735279DA73220AB3
:1002D0001A745C740023A34205D21A000E32054939
:1002E0008B540133F7E710BD7C0110200000102073
:1002F0000000002080011020F0B583B0040000232E
:100300000093028D92B2838D9BB29A4201D103B0C9
:10031000F0BD164D290000F0F3FA0190AB7B1B02F3
:10032000E87B18432E7C36026B7C1E4300D10136DD
:100330000700FFF7ADFF002505E03A000C4920005B
:1003400000F0B0FB0135AE42E1D92B0A084A9374A4
:10035000D5748021C900200000F08DF90138434296
:1003600043410093009B002BF3D1E6E700001020EF
:100370007C0110208368C022120593422CD0826930
:10038000013A9B0E9A4013000268944663440B6046
:100390004369042B23D0C368C0221206934222D0A3
:1003A0008269013A9B0F9A40130042689446634465
:1003B0004B60C3680269134382681343426A134364
:1003C000026A1343C26913438269013A120113435B
:1003D000426913438B60704703680B60D8E743683A
:1003E0000C334B60E5E743684B60E2E7064B0022C5
:1003F0005A609A605A61013ADA615A62DA625A6363
:10040000DA630232DA6470470080024070B505009A
:100410000C001C4A1C4B9A600868002803D02B0172
:100420009918FFF7A7FF6068002805D0164BD96818
:100430002B01C918FFF79EFF0123A2681343124A3C
:100440005360637B012B13D00123AB400E4AD36171
:100450000123AB400C4A53629362A27B002A0AD16B
:10046000094A5363227B012A08D0074AD36370BD2F
:10047000AB409361ECE7044A1363F3E7024A9363EA
:10048000F5E7C0460004102000800240002303600E
:10049000436083600373437383737047012904D0FF
:1004A00001238340034AD362704701238340014AFA
:1004B0009362F9E70080024001238340014A5361BF
:1004C0007047C04600800240014B18607047C0462C
:1004D00000800140024A536B02490B40536370474E
:1004E0000000024000FF008610B5054A536B054C22
:1004F000234008431843802109050843506310BD79
:1005000000000240FFFF00CF034A536BFF218B43E3
:10051000034353637047C04600000240012904D0E2
:10052000044A536B834353637047024A536B184327
:100530005063F9E700000240012904D0838E0122B4
:10054000934383867047838E012213439BB2838635
:10055000F8E700001C2303600E3B43600023836028
:1005600080221201C2600361012202754275837507
:10057000C37503764276C36120214354013143544D
:1005800001314354013143545D3141625839435480
:10059000C3620363D8314163C839425401314254C4
:1005A00001314254013142543139C163363143542F
:1005B00043648364A021C900C164502143540131C4
:1005C0004354013143540131425401314354013108
:1005D0004354013142540131425457320A49815245
:1005E00002320A498152023212218152436680232B
:1005F0001B050366602383662F3BC36633330367A3
:10060000603B43677047C046AB780000563400003B
:10061000012904D0438B5B045B0C43837047438BFD
:10062000024A13439BB24383F8E7C0460080FFFFB2
:10063000012904D0038B5B045B0C03837047038B9D
:10064000024A13439BB20383F8E7C0460080FFFFD2
:1006500010B50400838E012213439BB28386C38BA3
:1006600003229343C3830121FFF7D2FF012120001E
:10067000FFF7DEFF10BD038E0B4201D00120704753
:100680000020FCE7C38E0B4201D001207047002000
:10069000FCE710B50400838E01229343838610216A
:1006A0002000FFF7EFFF0128F9D110BD10B50400BD
:1006B000FFF7EFFF802212012280124B6380124B62
:1006C000A3801223E380002323816381A3810F4948
:1006D000E181602121822F3961823331A182603929
:1006E000E1820B492183FD21490061838121C901F8
:1006F000A183C0218901E1832384638423856285EA
:1007000010BDC046AB780000563400000080FFFFEB
:100710000705000000B58FB00121202000F0C8FAC5
:10072000FFF764FE6846FFF7B1FE04AB00930123B8
:100730006A46137300235373937369460E20FFF7C1
:1007400065FE0FB000BD70B505000C008B890380FD
:100750000B68DB024A6813438A681343828E134393
:100760009BB283860B7D5B039BB20A6913439BB2EA
:100770004A7D120392B213438A7D92001343CA7DCD
:10078000520013430A7E1343C38380239B01CA692B
:100790009A4200D184E0637E9B039BB2E2691343DB
:1007A0009BB22022A25CD20292B213432122A25C0D
:1007B000920292B213432222A25C520292B21343DB
:1007C0002322A25C12021343A28C1343AB8328237F
:1007D000E35CDB03E26A1343226B1343626B134354
:1007E0003822A25CD20113433922A25C9201134346
:1007F0003A22A25C520113433B22A25C1201134332
:10080000E26B13439BB26B834023E35CDB03626CBC
:100810001343A26C1343E26C1A435123E35C9B0124
:100820005221615C89010B435321615C49000B43F8
:100830005421615C09010B435521615C49010B4363
:100840005621615C89000B435721615C0B435021A9
:10085000615CC9000B4313439BB22B835823E35ABB
:100860006B805A23E35AAB805C23E35AEB80636EC0
:100870009BB22B81636E1B0C6B81236E9BB2AB8191
:10088000236E1B0CEB81A36E9BB22B82E36E9BB29B
:100890006B82236F9BB2AB82636F9BB2EB8270BDA6
:1008A000FFF738FF77E7000070B5124CA56B802387
:1008B000DB012B43A363104BE0241A5101398A005A
:1008C0001218E4201A5009010C4A1143E8229950E9
:1008D0000121D638FFF7E2FD0E20FFF7EDFD064AB5
:1008E000E823D3589B07FAD100210E20FFF7D6FD4D
:1008F00070BDC0460080024000041020028002AE9D
:10090000F8B5CE46474680B502000800938BC0215B
:1009100089010B40802149018B424BD08021890104
:100920008B4200D182E0002B04D02000C0BCB9462D
:10093000B046F8BD158D80231B059846904443466C
:10094000EB1810CBA1B2033189108C4617887F1B9E
:100950008900791A8946002901DD002105E0002679
:100960000DE08D0040CB465101316145F9D3DB04E8
:10097000DB0C1385D9E7B50002CB41510136BD0828
:10098000013DB542F7D843464946494288460027CB
:1009900004E0F519AD0002CB415101374146CD17B6
:1009A000AC46032561460D404544AD100135BD42BE
:1009B000EFD8DCE7178D80231B05D618BB1910CBA9
:1009C000A1B28C46032121404D1EA9416546AD08C8
:1009D00049191288D21B8D00551BAC46002D01DD34
:1009E000002205E000210AE0950040CB465101328B
:1009F0008A42F9D399E78D0080CB475101319508A0
:100A0000013D8D42F7D8320063465E42002504E086
:100A10004B199B0080CAC7500135F71703233B4091
:100A20009B199B100133AB42F2D87EE780231B0554
:100A30009C4662441468A3B2032121404D1EA94183
:100A40009B08C918FFF730FF6FE7000070B5124D23
:100A5000AB6B802424021C43AC6301398B009A18D1
:100A60000E4BF0241A51F422985009010C4A1143FC
:100A7000F822995001210F20FFF710FD0F20FFF7FA
:100A80001BFD064AF823D3589B07FAD100210F20FB
:100A9000FFF704FD70BDC046008002400004102036
:100AA000028002EAF8B50C00838BC02189010B405B
:100AB000418D89B280256D01AB423AD08025AD01D0
:100AC000AB4266D0002B00D0F8BD431880252D0521
:100AD000AC4663448026B601761AB6080332920803
:100AE000551CAE4207D80027BE420CD9B90009599F
:100AF00002C30137F8E70022954215D99100095940
:100B000002C30132F8E70388C318802109058C4627
:100B10006344002504E079198900095902C30135AD
:100B2000911B0131A942F6D804331F4A1340438573
:100B3000CAE7431880252D05AC4663448026B601DC
:100B4000761AB60803329208951CAE4207D80021E7
:100B50008E420CD98D002D5920C30131F8E70022B7
:100B60009542B1D99100095902C30132F8E70388CF
:100B7000C01880231B059C466044002504E04B19E7
:100B80009B001B5908C00135931B0233AB42F6D8BA
:100B90009AE7064B9C466044D11C8908023122002A
:100BA000FFF754FF90E7C046FC1F00000400000858
:100BB0000A4A936803218B439360012802D00228DC
:100BC00006D07047054A936801210B439360F8E70C
:100BD000024A936803210B439360F2E7000002404E
:100BE0000A4A93680C218B439360042802D008289A
:100BF00006D07047054A936804210B439360F8E7D9
:100C0000024A93680C210B439360F2E70000024014
:100C100010B50C4BDA680324A2430243DA605A6829
:100C2000094802400902114359605B685B0707D518
:100C3000044A536808211800084350608B435360EE
:100C400010BDC04600000240FFF0FFFF054BDB680F
:100C5000002804D004221343024AD36070470422C0
:100C60009343F9E700000240054B5B68012804D07C
:100C700004229343024A5360704704221343F9E766
:100C800000000240034AD368F0218B43000118435F
:100C9000D060704700000240034AD36803490B400C
:100CA0000343D3607047C04600000240FFFCFFFFD3
:100CB000002904D0044AD3691843D0617047024A1E
:100CC000D3698343D361F9E700000240E023034086
:100CD000202B08D0064BDB6B1F221040C340DB07E4
:100CE00004D501207047034B1B68F5E70020F9E7A6
:100CF00000800D400000024000B583B00023019346
:100D00002220FFF7E3FF019B01330193019AC023E7
:100D1000DB009A4201D20028F2D02220FFF7D6FF52
:100D2000002800D0012003B000BD00B583B000232F
:100D300001932320FFF7CAFF019B01330193019A1E
:100D400080231B029A4201D20028F2D02320FFF711
:100D5000BDFF002800D0012003B000BD00B583B066
:100D6000002301932120FFF7B1FF019B0133019381
:100D7000019AC023DB009A4201D20028F2D0212040
:100D8000FFF7A4FF002800D0012003B000BD000041
:100D900010300001014BC0587047C04600000140B0
:100DA00010B5054A1030000184580B041B0C234376
:100DB000090C8B43835010BD00000140103000012E
:100DC000024B9C46604440687047C04600000140AA
:100DD0000001024B9C4660440068704708010140D6
:100DE000024AA4235B00D0587047C046000001406F
:100DF000024AA4235B00D0507047C0460000014067
:100E0000024AA8235B00D0507047C0460000014052
:100E10000330C001014BC0587047C046000001407C
:100E2000C001024B9C466044006870478C01014041
:100E3000C001024B9C466044016070479001014034
:100E4000C001024B9C46604401607047C0010140F4
:100E5000C001024B9C46604401607047D0010140D4
:100E6000034A10300001835804214B4083507047DF
:100E70000000014070B505000E002C244443064BD1
:100E8000E4181F20FFF7B4FF002323763100280069
:100E9000FFF786FF70BDC04624010020F8B50600AC
:100EA0000C002C254543134BED180121FFF7D0FF13
:100EB000012C09D0022C0BD0EC682B69E318AF6829
:100EC0009F4210D91F000EE03000FFF7C9FFF3E783
:100ED00004213000FFF764FFEEE76B68195D300016
:100EE000FFF7AEFF0134BC42F7D302213000FFF719
:100EF000C1FFF8BD2401002010B52C2343430A4A4A
:100F00009B180A4A9969114208D001221A700849AF
:100F100000225A70FFF7AEFF002010BD00221A70A9
:100F200080210903F4E7C0462401002000FFFF00F0
:100F30000200080010B52C2343430B4A9B180129DB
:100F40000CD0012902D09A7E002A0BD059700522BC
:100F50001A700A21FFF78EFF002010BD0028F0D183
:100F60000120FAE70021F5E724010020F0B5DE4674
:100F700057464E46C0B582B005000E00FFF71EFF73
:100F800001902800FFF724FF03230340994628001F
:100F9000FFF7FEFE07002C246C43864BE418F30792
:100FA00001D501232376002600239A467BE0BB0768
:100FB00075D4237E002B72D04B46022B09D04B46B2
:100FC000002B0FD1A37E002B0CD00423237092465C
:100FD00069E0637E002BF2D0032323700023637645
:100FE000924660E000212800FFF7A4FF012656E0AA
:100FF000BB0705D4237E002B02D04B46012B19D012
:1010000001990B074BD000232370A36A9B46002B4A
:1010100004D03B004A462800D8470600002E30D1B5
:101020002378002B3BD10233237000212800FFF7E7
:1010300035FF34E0019B5B06E2D52369E268944604
:101040006344E360A268934216D900232370E369E6
:10105000002B03D06168280098470600002E06D1B7
:101060002378002B1BD12800FFF746FF17E0002153
:101070002800FFF75FFF12E001212800FFF70EFFB5
:101080000DE000212800FFF755FF08E002231A00B9
:101090003A4093463B4202D1237E002B0AD153466D
:1010A000002B00D17FE02278052AF8D8930042492E
:1010B000CB589F462800FFF7B3FE070009E0280041
:1010C000FFF7A6FEE3685B446268D05401239C46A8
:1010D000E344BB45F3D301212800FFF7A9FEE368F1
:1010E000FA18E260A3689A4216D300232370236A99
:1010F000002B03D06168280098470600002E06D117
:101100002378002B4FD12800FFF7F6FE4BE000219B
:101110002800FFF70FFF46E002212800FFF7AAFE94
:1011200041E0237E002B3ED02800FFF779FE070028
:1011300008281FD10026BE4206D22800FFF768FE0D
:10114000636998550136F6E701212800FFF770FE24
:1011500061692800636A9847061E06D12378042B2C
:1011600021D12800FFF7C8FE1DE000212800FFF76D
:10117000E1FE18E001212800FFF75AFE00212800B7
:10118000FFF7D8FE01260EE0BB0788D46378012B59
:1011900003D02800FFF7B0FE81E701212800FFF708
:1011A000C9FE7CE70026300002B0E0BCBB46B24678
:1011B000A946F0BD24010020F823000010B5054C1D
:1011C0000023A3600020FFF71BFE032323700020F1
:1011D00010BDC0461001002070B5184A80230421BC
:1011E000D150174B1C68002C02D00026300070BD77
:1011F00001221A60FFF7F4FD0500430701D4002621
:101200000EE0FFF7DBFF06000020FFF775FE0D4B39
:1012100001221A7604E0E0B22900FFF7A7FE0134AC
:10122000032CF8D9212328009843FFF7E1FD044B54
:1012300000221A60014B04321A60D7E700E100E097
:101240000C0100202401002010B5FFF7C5FF10BDE0
:101250000A490B4A0B4B00F009F80B490B4A0C4B9F
:1012600000F004F800F05EF8FEF754FF9B1A03DD6F
:10127000043BC858D050FBDC7047000048250000F4
:101280000000002078000020C02500000000102091
:1012900000081020FEE7C0461D4BDB689B071FD5EA
:1012A0001C491B4BDB68DB0700D54908184BDB6882
:1012B0005B0706D5164B5A68120A0F2313400133F9
:1012C0005943134BDA68120A03231340012B0DD044
:1012D000022B17D0002B05D00F4B104A1A6004E0E8
:1012E0000F49DEE70C4B0E4A1A607047084BDA686C
:1012F0001009130603D5072303400133D940064BD9
:101300001960F2E7044B802212021A60EDE7C04632
:10131000000002400024F40008000020409C00006F
:1013200000127A0010B5084B084ADA61DA68002228
:10133000DA6059685A6099689A6019691A6159693E
:101340005A61FFF7A9FF10BD00000240100000081D
:1013500010B5FEF719FFFEF73DFF62B6C02080050D
:10136000FEF7CAFFFAE7000003685A0004D580229E
:1013700012061343C01870475B005B08FAE7C046CB
:10138000F8B557464546DE464E469046E0B507005E
:10139000002924D04B1E9A46994600239B465B4663
:1013A0004B44DC0FE4186410E5007E193000FFF7B1
:1013B000DBFFA2450CD040450CD828000830381877
:1013C000FFF7D2FF013840450AD2631C9B46E6E78F
:1013D000404505D9A34502D0631E9946DFE70026A4
:1013E0003000F0BCBB46B246A946A046F8BDC04698
:1013F0000300012805D0022807D00020002B02D0CE
:1014000070470348FCE70348FAE70348F8E7C0469B
:10141000191B00000D1B0000251B000030B5234BDD
:10142000050083B08C1E002B26D0200001A900E00F
:1014300000BF00281CD001992200FFF7A1FF041E65
:1014400016D0FFF791FF6368A864012B2AD0201DF6
:10145000002B23DBFFF788FF0023E8642B6503687C
:10146000002B0FDBFFF780FF2861002003B030BDA9
:10147000002309202B61F9E70D480E49091AC9100C
:101480000191D9E71801000FFFF7B2FF2861431E51
:1014900098410823404298430930E7E70123E86474
:1014A0002B65DCE7002305202B61DFE7000000004F
:1014B0004824000048250000036810B50400DA073E
:1014C00005D49B070AD5483000F08AFC23685A07E8
:1014D0000AD51A070FD5DB0615D510BD483000F028
:1014E0007BFC23685A07F4D42000D03000F07CFC49
:1014F00023681A07EFD420005130FF3000F078FC49
:101500002368DB06E9D42000D130FF3000F074FC02
:10151000E3E7C04603000068002800D0C018704709
:10152000092070477047C04670B504000D002000C8
:10153000296CFFF773FF002811D12B6C2A0063611F
:1015400021000120236998470828F0D0072806D1F8
:101550000020296CFFF7E6FF281D00F027FC00F0B3
:101560008FFEC046F0B5CE46474680B5C368304CC6
:101570009846A5448369040016000431402205A85A
:10158000994600F0BFFE0023049325E0F022149B4F
:101590005200636104A97CA8039300F0B3FE21000C
:1015A000280023697CAA98478A9B0500039315931A
:1015B0004B46019304AB009322002300310001202D
:1015C000C047002822D1F0227CA9520004A800F0D4
:1015D00099FE0026082D22D1149B200019000393A8
:1015E000FFF71CFF09360700F5B20028CED0129B8A
:1015F0001021039315934B46019304AB00932200F3
:10160000230001202943C047002800D009273800C3
:10161000F5239B009D44C0BCB946B046F0BD072DE4
:10162000F4D130001499FFF77DFF05A800F0BEFB50
:101630002CFCFFFF406C704770B5CB6BFAB00B64AD
:1016400005000E004022043103A800F05BFE0123D8
:101650005B42029306E029002B6902AA9847040026
:1016600008280AD1129B280019000193FFF7D6FE23
:101670000028F0D009207AB070BD02A8FFF71CFF47
:10168000062CF7D131002800FFF74EFF10B582611C
:10169000DA6BC1601A6419000022FFF763FF10BD06
:1016A000436970B50B64C36804000D00002B13D1AF
:1016B0000A002369010002209847072805D008285E
:1016C0000FD129002000FFF72FFF0020296CFFF722
:1016D00029FF281D00F06AFB0122FFF743FF00F0FD
:1016E000CFFD00F0CDFDC046C36810B5002B05D07E
:1016F000CB6B00220B64FFF735FF10BDFFF79CFF9B
:10170000FBE7C0467047C0468368010010B5002B58
:1017100001D00120984710BD012915D00AD8002B0F
:1017200010D10F2A0ED8920082185268009B002018
:101730001A6006E001200339C9B288428041404264
:10174000013070470220FCE70120FAE700B585B0C0
:1017500003AB0A00009300210023FFF7DDFF03988D
:1017600005B000BD012915D00AD8002B10D10F2AD1
:101770000ED8009B92001B6882185360002006E080
:1017800001200339C9B2884280414042013070478C
:101790000220FCE70120FAE700B585B003AB039215
:1017A00000930A0000230021FFF7DCFF05B000BD15
:1017B00070B51A4CD36BA544136405000C0019A82E
:1017C000111D402200F09EFD01235B42189314E09E
:1017D0000C2118A802AAFFF7DFFF210018A8A847CC
:1017E000002812D1069B18AA02A908300193984735
:1017F000060005280AD0092807D0289B02A819004E
:101800000193FFF70BFE0028E2D0092618A8FFF786
:1018100053FE300090239B009D4470BDC0FDFFFF30
:10182000F0B557469246032245464E46DE46994657
:101830001300E0B58846CD6C494689B0034000935B
:1018400008CD0695002900D180E01A0C1B040593F1
:10185000022304A90B73FD3313409B004A73ED1858
:10186000009B022B01D143469D6B43461B6DDB075A
:101870000FD5504605A900F065FB002801D10820CE
:1018800000E0092009B0F0BCBB46B246A946A0461C
:10189000F0BD2F68002FECD00823034002930023F3
:1018A0000193013354469B464646BA464B46022BAB
:1018B00049D02B886F889A4604355B463800984398
:1018C000B36C0F21984680442000FFF73FFF0023B0
:1018D000804506D853465A469343434498429B4119
:1018E0005B4202227F001740594652460A40174386
:1018F000012F30D0022F4CD0002FC2D1009A002AE5
:1019000002D0002B00D09BE004352B689A46002BB8
:10191000CCD1200005A9A24600F014FB0028B0D1CC
:10192000019B002BABD00F215046FFF70FFF0E217C
:1019300002005046FFF730FF50460F21724AFFF772
:101940002BFF07209EE76F680835B6E71B0205935B
:1019500004AB9A8184E7009A002A49D1002B16D063
:101960002B68DF0F6B689A1C00D18AE7320058326F
:101970000492013300D1B6E0281DFFF7CBFD3A00F9
:10198000010004AB300000E000BF00286CD1083536
:10199000BBE72A68009957007F0800290DD1002B6A
:1019A00004D0029B002B72D0002F3CD0002A00DA1A
:1019B00004350137BF00ED19A7E7336A0D21200078
:1019C0009846FFF7C3FE804501D02A68EEE7B36A68
:1019D0009D42FAD10023F362043333632B1DB762B7
:1019E00073632B68002B00DA87E001230193E0E7A3
:1019F0000D212000376AFFF7A9FE8742C7D1B36ADD
:101A00009D42C4D1B046A2462800FFF7ADFC0F218D
:101A100002005046FFF7C0FE504642460021FFF745
:101A2000BBFE07202EE7B046A2460D215046FFF729
:101A30008DFE4346049A18625A6206209D6221E791
:101A40002800FFF791FC0435A246B563040030007E
:101A500000E000BF002800D113E7504622000F210C
:101A6000FFF79AFE07200DE7A2460D21040050461D
:101A7000FFF76CFEB04633003062022C39D1049A75
:101A80002C33F2627362434606209D62FAE62B1DF8
:101A90009A460023984658339C4621004A46B4444F
:101AA0005446A9468A463D0003924746E0460EE06A
:101AB000434620000493FFF72DFD0022010004ABF4
:101AC000300000E000BF01370434002804D1AF42E9
:101AD000EED14D46B046A8E72F004D46039B544635
:101AE00099462A6862E70D212000FFF72FFEB046D5
:101AF00030624346049A5A62C5E7781C8000B046BB
:101B0000A246281881E7C0460000000010B5002357
:101B1000FFF786FE10BDC04610B50123FFF780FE1B
:101B200010BDC04610B50223FFF77AFE10BDC046B7
:101B3000F0B5CE46474680B5050014001E00C3B080
:101B4000032970D04DD8002900D174E001296CD14F
:101B5000130C14049846240C012E00D1A8E0052E85
:101B600063D11B19202B60D842460F2A00D8C0E051
:101B7000A146002C00D0D1E0AA6B20AF002C2ED0C3
:101B8000002399464346DB00FF180023E400D158A8
:101B9000F95004339C42FAD14B461219002B10D055
:101BA0006F464046102800D210204B46D900002333
:101BB0001038C0003818D458C45004339942FAD1B0
:101BC0005218012E00D1CFE04346AA630F2B00D854
:101BD000CCE04B46002B02D0684600F005F900200F
:101BE00024E0042921D1002B1FD1102A1DD8102256
:101BF00003681A4200D0A9E020AF380000F0FEF8D8
:101C000000230120AA6B010099400C4202D040CA77
:101C100099007E500133042BF5D13800AA6300F0FF
:101C2000EBF8002002E0032B1FD0022043B0C0BC21
:101C3000B946B046F0BD002BF7D101218846291DD9
:101C400000238C461004AA6B000C414699400842C0
:101C500003D0664680CA990077500133102BF4D127
:101C60000020A304E2D4AA63E0E71404160C240CB9
:101C70003319102BD9D8082203681A426DD120AF2E
:101C8000380000F0B7F8F600AB6B002C0AD0F61A5B
:101C9000E400321F1C19BA1819000968043399505E
:101CA000A342F9D13800AB6300F0A2F80020BDE7F1
:101CB0001B19102BB9D843460F2BB6D82B681E42E0
:101CC00006D00322280093432B60483000F086F8AA
:101CD00020AF380000F082F80023AA6B9946002C50
:101CE00000D04FE704323800AA6300F075F80020F6
:101CF0009CE7102B45D9102252429146994401226B
:101D00002B681A4207D093430222280013432B600A
:101D1000483000F067F84B46002B35D004222B6882
:101D20001A4227D143460F2B03D820AF380000F0CA
:101D300059F86F46380000F059F810244346AA6B52
:101D4000E41A002C00DC2CE720AF1BE79343036070
:101D5000D130FF3000F052F84EE79343036051302A
:101D6000FF3000F047F88AE720AFBBE720A800F07B
:101D700037F82EE7280093432B60D03000F036F878
:101D8000D0E700239946BAE743460F2B00D9F3E684
:101D900020AF380000F026F8AA6B002C00D0EFE648
:101DA000380000F01DF8002040E7C046011C343127
:101DB00038C9043B9C461D60A646011C20313CC925
:101DC00090469946A246AB46011C0831FCC94168C1
:101DD0000068E54600BDC0467047C0467047C04633
:101DE0007047C0467047C0467047C0467047C046FF
:101DF0007047C0467047C0467047C0467047C046EF
:101E000001B401A801B585B0FFB408A841464A460F
:101E100053465C4665463EC001A83EC80F980090F8
:101E200000230CB401A9FFF707FC109B12B0184760
:101E300001B401A801B585B0FFB408A841464A46DF
:101E400053465C4665463EC001A83EC80F980090C8
:101E500000230CB401A9FFF723FC109B12B0184714
:101E600001B401A801B585B0FFB408A841464A46AF
:101E700053465C4665463EC001A83EC80F98009098
:101E800000230CB401A9FFF72FFC109B12B01847D8
:101E900001B401A801B585B0FFB408A841464A467F
:101EA00053465C4665463EC001A83EC80F98009068
:101EB00000230CB401ABFFF7E9FB109B12B01847ED
:101EC00001B401A801B585B0FFB408A841464A464F
:101ED00053465C4665463EC001A83EC80F98009038
:101EE00000230CB401AAFFF763FC109B12B0184743
:101EF000027A0300002A0BD1427A002A0FD0013A5D
:101F000042724268111D416003211268017202E0B1
:101F1000013A02720268100E12021A607047B02075
:101F2000FCE7C04600B585B003AB00930C2200234C
:101F30000021FFF7F1FB039805B000BD10B5FFF7D6
:101F4000F1FF10BDF0B54E4645465746DE4600232C
:101F5000E0B587B003930F339846083B994680233A
:101F60001B0305000E009A463000FFF7C1FF040076
:101F7000B02800D1C1E0030629D5030042469343AF
:101F8000DBB2802B53D0902B3DD0A02B6BD0B02B4D
:101F900000D17EE0C02B00D195E003004A46934378
:101FA000DBB2D02B0AD15346024001321A4305233B
:101FB00001212800FFF7BCFD0028D5D0092420000E
:101FC00007B0F0BCBB46B246A946A046F0BDFF2311
:101FD000820013401F1D05AB9B4600930D2200237A
:101FE00000212800FFF798FB630639D4059B9C4627
:101FF00067445B460597009300230D2200212800CB
:10200000FFF7B0FBB0E7833B03400D2BD6D005AF05
:1020100002400023002128000097FFF77DFB0023EA
:102020000D22002128000097FFF79CFB9CE704028B
:102030003000FFF75DFF802720433F02B842BDD04C
:1020400004010005020C002300212800FFF770FDA9
:102050000028B3D13C4200D186E70123039383E7F4
:10206000059BDF1BC5E7FF234A461B01190082437E
:1020700011410A001A40030702D58023DB011A43ED
:10208000002300212800FFF753FD002800D16BE753
:1020900094E7B12845D0B22800D19FE0B32855D0AD
:1020A000FC230340B42B00D188E74A465346024044
:1020B00001321A43012101232800FFF739FD0028CE
:1020C00000D151E77AE7C6284BD0C7285DD003007E
:1020D0004A469343DBB2C02B6CD0C82871D0C928C4
:1020E00000D06BE73000FFF703FFF02302031B0370
:1020F000134042460240013258E7039B0024002B64
:1021000000D05CE705AE0E22002128000096FFF704
:1021100003FB00230F22002128000096FFF722FB7B
:102120004DE73000FFF7E4FE021E00D146E7030052
:1021300041468B43DBB2002B00D03FE70021280053
:10214000FFF7F6FC002800D10EE737E73000FFF775
:10215000CFFEF02302031B0313404246024001322C
:10216000A7E73000FFF7C4FEF02302031B03134070
:102170004246024001321A43032303212800FFF79D
:10218000D7FC002800D1EFE618E73000FFF7B0FEDB
:10219000021E00D112E7030041468B43DBB2002B45
:1021A00000D00BE704212800FFF7C2FC002800D173
:1021B000DAE603E74346A0221C400134120322431F
:1021C000DAE73000FFF794FE434602009A43D2B2AA
:1021D00010321840120301300243E8E605AB0093C9
:1021E0009B460D22002300212800FFF795FA3000BE
:1021F000FFF77EFE03061AD57F27B03C059B3840CB
:10220000A0409C466044059030000734FFF770FE04
:102210000306F3D481217F2389008C460340A34029
:10222000059A62449B1805935B460093E4E60224FA
:10223000F0E7C046030000B5DB6C85B05A680800C3
:10224000120201921A0008326946029203220A73AE
:10225000DB794B7301A9FFF775FE05B000BDC046E1
:1022600010B5FFF76BFE806C10BDC04610B5FFF7D0
:1022700065FEC36CD87902308000181810BDC046C6
:10228000062010B500F07AF8012000F0A7F8000051
:10229000084B10B50400002B02D0002100E000BF65
:1022A000054B1868836A002B00D09847200000F087
:1022B00095F8C046000000001024000070B500260C
:1022C0000C4D0D4C641BA410A64209D1002600F051
:1022D00087F80A4D0A4C641BA410A64205D170BDB4
:1022E000B300EB5898470136EEE7B300EB58984738
:1022F0000136F2E77000002070000020700000201E
:1023000074000020002310B59A4200D110BDCC5CAF
:10231000C4540133F8E703008218934200D1704798
:1023200019700133F9E770B504000D001F2904D9B5
:10233000162303600120404270BD436C002B04D083
:102340008A009B181A68002A08D1200000F032F891
:102350002A000100200000F01BF8EDE70020012A10
:10236000EAD0511C03D1162301302360E4E7002496
:1023700028001C6090472000DEE7000010B5034BEA
:1023800001001868FFF7CFFF10BDC0460C00002009
:10239000002370B5064D0400080011002B6000F00A
:1023A00015F8431C03D12B68002B00D0236070BDAF
:1023B000D401002010B500F001F810BD5822012012
:1023C000014B40421A607047D4010020582201207E
:1023D000014B40421A607047D4010020FEE7C0461E
:1023E000F8B5C046F8BC08BC9E467047F8B5C04674
:1023F000F8BC08BC9E467047A4110000AE0F000058
:10240000F00F00008C100000221100008811000065
:08241000100000200000000094
:1024180074B20181B0AB30800000000080080181F7
:10242800B0B0ABF0000000003F020181B0AB3080DB
:102438000000000080060181B0B0ABF00000000091
:10244800C0DCFF7F0100000038DDFF7FB0B0A8804E
:102458007CDDFF7FB0B0AA8030DEFF7F0100000086
:1024680090DEFF7FB0AB028004DFFF7F0100000039
:10247800D8EEFF7FB0B0A880E8EEFF7F0100000033
:1024880094EFFF7FB0A9028028F0FF7FB0B0A8804A
:102498007CF0FF7F0100000088F0FF7FB0B0AA80C9
:1024A800BCF0FF7F6CFFFF7F84F1FF7F010000001D
:1024B80080F1FF7FAA3F3980CCF1FF7FB0B0A880C0
:1024C800D8F1FF7FB0B0AA8018F2FF7FB0B0A88023
:1024D8002CF2FF7F0100000028F2FF7FB0B0A88037
:1024E80030F2FF7F01000000C0F2FF7FAA0FB28028
:1024F80028F3FF7F28FFFF7F0CF6FF7FB0B0A8808E
:1025080028F6FF7F24FFFF7F9CF8FF7F0100000073
:102518000CFAFF7F008404801CFAFF7FB0B0A8800B
:102528001CFAFF7F10FFFF7F04FDFF7F00840480FB
:1025380028FDFF7FB0B0A88040FDFF7F01000000AC
:10254800123456789ABC000000127A00100000205D
:102558000000000000000000000000000000000073
:102568000000000000000000000000000000000063
:102578000000000000000000000000000000000053
:102588000000000000000000000000000000000043
:102598000000000000000000000000000000000033
:1025A8000000000000000000000000000000000023
:0825B800E9000000C100000071
:1025C000000000000000000000000000000000000B
:1025D00000000000000000000000000000000000FB
:1025E00000000000000000000000000000000000EB
:1025F00000000000000000000000000000000000DB
:040000030000125196
:00000001FF
